:0400000080312428FF
:100008007E14803120007F08E2000B1F1F2821008A
:10001800901E17282000901E172866088A00650879
:100028000A0080311F282100901C1F282000901CE6
:100038001F288531242520006208FF007E10090052
:10004800803126288531E2258031E7008531E32596
:100058008031E8008531E4258031E9008531E525E6
:100068008031EA0020308400003085003830853146
:10007800A3257E10200081316E2923001908F10084
:100088007108F500750803190800EC285630750644
:1000980003195A284130750603195A285030750635
:1000A80003195A284C307506031D08007508F1001D
:1000B80071082000D200D001D00A08007508F100AC
:1000C8007108D3000230F1007108D000080052080E
:1000D8005307F100F201F20DFF307105F300003013
:1000E8007205F400750873067404031DDC280430D7
:1000F800F1007108EA0056305206031D8B28530898
:10010800F100F2017108CD007208CE00E7284130F5
:100118005206031D97285308F100F2017108E70001
:100128007208E800E72850305206031DA528503011
:1001380085318D2580312B3085318D2580317B307F
:10014800E5284C3020005206031DD2280130F1006A
:100158007108CF07C32822000E13B42822000E17F7
:100168008E13E72822000E13BB2822000E178E17C5
:10017800E72822000E138E132000CF01E7284F082E
:10018800003A0319AF28013A0319B228033A0319B0
:10019800B628013A0319B928BD28E7282430853143
:1001A8008D2580314D3085318D2580317130E528A0
:1001B800243085318D258031433085318D2580313E
:1001C800673085318D252000D0010800D001080056
:1001D80020005008003A03194A28013A03196228F6
:1001E800033A03196B28EA2808000630F0000030AB
:1001F800F10020006808F3006708F2008231F1225C
:10020800803170082D3EF800003003180130F900E5
:1002180084319A24803120000C1E5329D1016908A9
:10022800031D2529423085318D25803131308531B6
:100238008D258031733085318D2580312000E9018D
:10024800E90A6A0803193F2900304E02653003198C
:100258004D02031C33296430CD000030CE004D0818
:10026800E1006108DD00DE014030833157230130B1
:100278002000EA0208000130E1006108D10765307A
:100288005102031C492922008E1265302000E1002A
:100298006108DD00DE01403083315723080020006B
:1002A8006903031D6529423085318D258031303041
:1002B80085318D258031723085318D258031200042
:1002C800E9016530E1006108DD00DE01403083317D
:1002D800572308008431C424813122008E168C16DD
:1002E800F9302100A6000030A7008531732581313F
:1002F800FF308531A925813186311626813141307B
:100308002100A6000030A70085317C2581310B171C
:100318008B17BE296A080319AA29031022008C1E0C
:100328000314031C9A2922008C169C2922008C1283
:1003380003302100A9008A30A8005530890BA22972
:10034800A80BA229A90BA2290032BE29031022005A
:100358008C1E0314031CB32922008C16B529220015
:100368008C1282302100A800DD30890BB929A80B36
:10037800B929003220000C1A8E2922008C16BE29B9
:100388008531CD258131003A031DD429F0298631E4
:10039800062608008631022608008531FA2508005D
:1003A80020002F08FA007A08F9000630203E86005F
:1003B8008701413F8A00403F0A008131013A031911
:1003C800D129033A0319CB29013A0319CE29073A4F
:1003D8000319D129D129080020003C101730203EEC
:1003E80086008701403F84008501810A0008853125
:1003F800DD25813101302000B8020030B93B3808D2
:100408003904031D092A06300A2A0330FB0000308C
:10041800FC007B08080022008C018D018E0113303E
:1004280021008C0070308D001F308E000E302300AC
:100438008E008D0101308C0024008D018C018E010D
:100448002100951725008C018D018E01373026007B
:100458008C00F0308D00FF308E003F3027008C007C
:10046800F0308D00FF308E000D303C00A4000C30C1
:10047800A10010303D009E0012309F0011309C00FA
:100488000E3092000E303C00A000080086311F2676
:100498008231FA0020003708860087017A08810037
:1004A8000130FA007A08B7070130B8020030B93BCA
:1004B800380839040319642A86310A2605300800E9
:1004C800BC156C2A8531EE2508008531F225080017
:1004D80020002C08FA007A08F90021088A00200870
:1004E8000A008231013A0319692A033A0319662A74
:1004F800013A0319662A073A0319692A692A080082
:10050800F100F201F20A20003C19B92A7108F00042
:100518007008B600BC103C153C100E30F000700896
:10052800BA00F430B4000130B500BC153C30A0006E
:100538000630A100AC013C30A2000630A300AD019A
:100548003C30A4000630A500AE013C30A6000630C1
:10055800A700AF013A30A8000630A900B0018631E3
:100568003426823185313C25F201720808002000CA
:1005780057083D3E86008701810123001D1DD02AB2
:10058800200057083D3E8600870181142100250878
:100598008A0024080A00823123009D1CDF2A2000DB
:1005A80057083D3E860087010115210023088A006F
:1005B80022080A008231200057083D3E8600870144
:1005C80001080319EE2A210021088A0020080A00E0
:1005D80082310800843183240800F501F60170088F
:1005E80071040319202BF701F70AF11B052B0130C1
:1005F800F035F10D890BFC2A0130F4007408F70777
:10060800F92A0130F535F60D890B062B71087302AE
:10061800031D102B70087202031C172B7008F202BE
:100628007108F33B75140130F136F00C890B182B67
:100638000130F702031D052B7608F1007508F0005C
:10064800080021009012BB30A6000230A7008531B7
:100658007C258331093023009F0090309D00243091
:100668009E0067309B009C013F302100A6000630A9
:10067800A7008531BB25833112302100A600063042
:10068800A7008531B525833137302100A600063013
:10069800A7008531C1252000D401D701D601D50195
:1006A8002100901608002000E00020006008823138
:1006B80084228331003A0319592BD630F5000430CF
:1006C800F6005E302000DF005F08F700853148251E
:1006D80083310130F0000030F1005D30853116259E
:1006E80083310030F500F600F7018531302583317C
:1006F8008531E6258331843153248331013A031D42
:1007080008007F2B86313426833120003C1C972B30
:100718008531CD258331003A0319972B0F302000FE
:10072800D8005808BA0020003A08D800D901D835AE
:10073800D90D1930580784008430593D8500013F90
:100748008A00003F0A0083312000DA005A08BA0004
:1007580008002000BC15BA2B8531FE25080086311B
:100768001C26033008008531FA25080020002C08D3
:10077800FA007A08F90021088A0020080A00833163
:10078800013A0319B72B033A0319B02B013A03199D
:10079800B02B073A0319B32BB72B0800F4007008E5
:1007A80071040319E82B7435203E86008701700810
:1007B800C03F7108C13F7208F30074082C3E8600E0
:1007C80087017308810008007435203E8600870180
:1007D8003C30C03F0630C13F74082C3E860087017C
:1007E8008101080020003C100230FA007A08BB00A2
:1007F800032C8531FE2508008531FA2508002000E4
:100808002E08FA007A08F9000430203E8600870195
:10081800413F8A00403F0A008431023A0319FD2B08
:10082800013A0319FD2B002C0800D834053485340F
:1008380005349C340534C43401344A340234C73492
:100848000534AD3403340634063402340634FE3439
:100858000534FA340534F6340534F2340534EE340C
:100868000534D3340534F63403342000DB00DC01CE
:10087800DC0ABC18502CBC14DC015B080319472C9B
:10088800BA01BA0A4B2C0230FD007D08BA00863145
:100898002B2684318531692520005C080800F10188
:1008A800F10A2000BC186A2C3C11FF30F0007008D7
:1008B800B60086313426843186312E26843186313D
:1008C800312620003B08F0007008F100710808008C
:1008D800790886008701403FF000413FF100790820
:1008E800023E8600870101088531162584310030D3
:1008F800F500F600F701853148250230080023008D
:100908001908F00020005708453E86008701700846
:1009180081000130F0007008D7070830570203182B
:10092800D7010130F0007008D50708007908FB00EE
:100938007808FA00FB36FA0CFB36FA0C7A082C0019
:10094800980078080339FA000530FA35FF3E031D90
:10095800A92C7A359700080020009E019D019F016F
:100968009B309B009A019010210090143E30A60005
:100978000630A70085317325F03020009C00080060
:1009880085315F25843182310F2284318531952567
:1009980084318531542584318431B02484318331C4
:1009A800252308000130F0000030F1007908853176
:1009B800162584310030F500F600F7018531482509
:1009C800043008000230F0000030F1007908853169
:1009D800162584310030F500F600F70185314825E9
:1009E800023008000130F0000030F100790885314C
:1009F800162584310030F500F600F70185314825C9
:100A0800023008000230F0000030F100790885312A
:100A1800162585310030F500F600F70185314825A7
:100A280004300800F3002000BC1D08007308F20021
:100A38007208B7007108B9007008B800BC11080046
:100A480020009010630864040319080064088A00F1
:100A580063080A00853108007608F1007508F0007F
:100A68007708F8007808F20002308331D2230800B2
:100A78002400951A080080309400083095009601EB
:100A880009309200951608007608F1007508F00004
:100A98007708F8007808F20000308331D223080084
:100AA80080302C0099000F30980040309700CF30EC
:100AB80025009E0508008030240094000830950029
:100AC800960109309200951208002000BC1C08000D
:100AD8008531EA258531833186238531692D2100C9
:100AE80027082000E400210026082000E300080071
:100AF800210027082000E600210026082000E50044
:100B0800080020003C140314360D8531DD2505301E
:100B18000800F0002000101E8E2D700823009A0097
:100B280008006A3021009900980122009601080007
:100B380020003C1436358531DD250330080064007B
:100B480080010131890BA42D00342100A70027085A
:100B58008531AF2508002100A600260820009A004C
:100B6800080021002708A3002608A2000800210089
:100B78002708A5002608A400080021002708A100CE
:100B88002608A000080020003C10863122260430E8
:100B980008002400160E890C890C01390800200071
:100BA800BC10BB010E3008002000BC10BB010E3089
:100BB8000800F00070082400910008002D3400346B
:100BC800013404340030843139240800200090199D
:100BD8000800EA2D86310E260930080086310E26D7
:100BE8000A30080086310A26053008008631252695
:100BF8000030080086312826013008008631282672
:100C08000230080086312826013008002400961298
:100C180016160800240096161616080023001D1242
:100C28001D16080086311926080020009C170800A8
:100C380020009015080024001108080024009615CB
:100C48000800240016150800240096140800240043
:100C580016140800210090110800240095120800BD
:100C68002000901108008431832408000530080012
:080C780001300800080008002B
:020000040001F9
:06000E00FC3FFF3F9F3F95
:00000001FF
