:0400000080312428FF
:100008007E14803120007F08E2000B1F1F2821008A
:10001800901E17282000901E172866088A00650879
:100028000A0080311F282100901C1F282000901CE6
:100038001F288431DE2420006208FF007E1009009A
:100048008031262885319C258031E70085319D2522
:100058008031E80085319E258031E90085319F2572
:100068008031EA0020308400003085003730853147
:100078005D257E10200081315D2923001908F100DB
:100088007108F500750803190800EC285630750644
:1000980003195A284130750603195A285030750635
:1000A80003195A284C307506031D08007508F1001D
:1000B80071082000D100D001D00A08007508F100AD
:1000C8007108D2000230F1007108D0000800510810
:1000D8005207F100F201F20DFF307105F300003014
:1000E8007205F400750873067404031DDC280430D7
:1000F800F1007108EA0056305106031D8B2852089A
:10010800F100F2017108CD007208CE00E7284130F5
:100118005106031D97285208F100F2017108E70003
:100128007208E800E72850305106031DA528503012
:100138008531472580312B308531472580317B300B
:10014800E5284C3020005106031DD2280130F1006B
:100158007108CF07C32822000E13B42822000E17F7
:100168008E13E72822000E13BB2822000E178E17C5
:10017800E72822000E138E132000CF01E7284F082E
:10018800003A0319AF28013A0319B228033A0319B0
:10019800B628013A0319B928BD28E7282430853143
:1001A800472580314D308531472580317130E5282C
:1001B80024308531472580314330853147258031CA
:1001C8006730853147252000D0010800D00108009C
:1001D80020005008003A03194A28013A03196228F6
:1001E800033A03196B28EA28080020006808E10090
:1001F8006708E000E136E00C6008143EF0000030CB
:1002080003180130F10084315424803120000C1E81
:1002180042296908031D1F2942308531472580314D
:10022800313085314725803173308531472580311C
:100238002000E901E90A6A080319392900304E0249
:10024800653003194D02031C2D296430CD000030A0
:10025800CE004D08E0006008DC00DD01403083314D
:10026800112301302000EA0208006530E000600830
:10027800DC00DD01403083311123080020006903D0
:10028800031D54294230853147258031303085316E
:100298004725803172308531472580312000E901BA
:1002A8006530E0006008DC00DD0140308331112357
:1002B800080084317E24813122008C16F930210017
:1002C800A6000030A70085312D258131FF3085310A
:1002D800632581318531D025813141302100A60047
:1002E8000030A7008531362581310B178B17AC29D3
:1002F8006A0803199829031022008C1E0314031C92
:10030800882922008C168A2922008C1203302100A9
:10031800A9008A30A8005530890B9029A80B90298C
:10032800A90B90290032AC29031022008C1E03145B
:10033800031CA12922008C16A32922008C128230CA
:100348002100A800DD30890BA729A80BA7290032B6
:1003580020000C1A7C2922008C16AC2985318725AF
:100368008131003A031DC229DE298531C0250800E4
:100378008531BC2508008531B425080020002F08E8
:10038800FA007A08F9000630203E86008701413FCE
:100398008A00403F0A008131013A0319BF29033A14
:1003A8000319B929013A0319BC29073A0319BF29C6
:1003B800BF29080020003C101730203E8600870126
:1003C800403F84008501810A0008853197258131E5
:1003D80001302000B8020030B93B38083904031D49
:1003E800F7290630F8290330FB000030FC007B08B1
:1003F800080022008C018D018E01133021008C0031
:1004080070308D003F308E000E3023008E008D013D
:1004180001308C0024008D018C018E01210095177C
:1004280025008C018D018E01373026008C00F030BC
:100438008D00FF308E003F3027008C00F0308D009B
:10044800FF308E000D303C00A4000C30A1001030AD
:100458003D009E0012309F0011309C000E3092002B
:100468000E303C00A00008008531D9258231FA0001
:1004780020003708860087017A0881000130FA00D9
:100488007A08B7070130B8020030B93B3808390498
:100498000319522A8531C42505300800BC155A2A8B
:1004A8008531A82508008531AC25080020002C08D6
:1004B800FA007A08F90021088A0020080A00823127
:1004C800013A0319572A033A0319542A013A03191E
:1004D800542A073A0319572A572A0800F100F2014B
:1004E800F20A20003C19A72A7108F0007008B6002B
:1004F800BC103C153C100E30F0007008BA00F43007
:10050800B4000130B500BC15F630A0000530A100DC
:10051800AC01F630A2000530A300AD01F630A4000E
:100528000530A500AE01F630A6000530A700AF01E2
:10053800F430A8000530A900B0018531EE258231DC
:100548008431F624F20172080800200056083D3E66
:1005580086008701810123001D1DBE2A2000560840
:100568003D3E860087018114210025088A00240861
:100578000A00823123009D1CCD2A200056083D3EEA
:10058800860087010115210023088A0022080A0035
:100598008231200056083D3E860087010108031974
:1005A800DC2A210021088A0020080A00823108007C
:1005B80084313D24080021009012A930A6000230A1
:1005C800A700853136258231093023009F009030FD
:1005D8009D0024309E0067309B009C01F93021006B
:1005E800A6000530A700853175258231CC30210061
:1005F800A6000530A70085316F258231F130210032
:10060800A6000530A70085317B252000D301D6013F
:10061800D501D4012100901608002000DF00200039
:100628005F08823172228331003A0319132B90300C
:10063800F5000430F6005D302000DE005E08F700AB
:100648008531022583310130F0000030F1005C3043
:100658008431D02483310030F500F600F70184316D
:10066800EA2483318531A025833184310D248331F7
:10067800013A031D0800392B8531EE25833120000E
:100688003C1C512B853187258331003A0319512BA6
:100698000F302000D7005708BA0020003A08D700CA
:1006A800D801D735D80DD330570784008330583D4B
:1006B8008500013F8A00003F0A0083312000D900ED
:1006C8005908BA0008002000BC15742B8531B825DC
:1006D80008008531D625033008008531B425080087
:1006E80020002C08FA007A08F90021088A0020085E
:1006F8000A008331013A0319712B033A03196A2B53
:10070800013A03196A2B073A03196D2B712B08005C
:10071800F400700871040319A22B7435203E86007A
:1007280087017008C03F7108C13F7208F300740860
:100738002C3E860087017308810008007435203E2E
:1007480086008701F630C03F0530C13F74082C3E53
:10075800860087018101080020003C100230FA0061
:100768007A08BB00BD2B8531B82508008531B42532
:10077800080020002E08FA007A08F9000430203E0C
:1007880086008701413F8A00403F0A008331023AD0
:100798000319B72B013A0319B72BBA2B0800923467
:1007A80005343F34053456340534B2340134383412
:1007B80002348134053467340334C0340534BC341E
:1007C8000534B8340534B4340534B0340534AC34A5
:1007D8000534A83405348D340534B034033420008E
:1007E800DA00DB01DB0ABC180A2CBC14DB015A084E
:1007F8000319012CBA01BA0A052C0230FD007D0844
:10080800BA008531E52583318531232520005B0831
:100818000800F101F10A2000BC18242C3C11FF301B
:10082800F0007008B6008531EE2584318531E82561
:1008380084318531EB2520003B08F0007008F10079
:1008480071080800790886008701403FF000413FA1
:10085800F1007908023E8600870101088431D0241E
:1008680084310030F500F600F701853102250230A9
:10087800080023001908F00020005608453E8600AD
:100888008701700881000130F0007008D607083031
:1008980056020318D6010130F0007008D40708008A
:1008A8007108F3007008F200F336F20CF336F20C1C
:1008B80072082C00980070080339F2000530F235F0
:1008C800FF3E031D632C72359700080020009E012F
:1008D8009D019F019B309B009A019010210090146C
:1008E800F830A6000530A70085312D25F03020000E
:1008F8009C0008008531192584318131FD2184311E
:1009080085314F25843185310E25843184316A241F
:1009180084318231DF2208000130F0000030F1001C
:1009280079088431D02484310030F500F600F701CD
:1009380085310225043008000230F0000030F10053
:1009480079088431D02484310030F500F600F701AD
:1009580085310225023008000130F0000030F10036
:1009680079088431D02484310030F500F600F7018D
:1009780085310225023008000230F0000030F10015
:1009880079088431D02484310030F500F600F7016D
:100998008531022504300800F3002000BC1D080042
:1009A8007308F2007208B7007108B9007008B8003F
:1009B800BC110800200090106308640403190800A3
:1009C80064088A0063080A00843108007608F10088
:1009D8007508F0007708F8007808F20002308331D3
:1009E8008C2308002400951A0800803094000830F1
:1009F8009500960109309200951608007608F100D6
:100A08007508F0007708F8007808F20000308331A4
:100A18008C23080080302C0099000F30980040305B
:100A28009700CF3025009E050800803024009400F0
:100A380008309500960109309200951208002000B0
:100A4800BC1C08008531A4258531833140238531BC
:100A5800232D210027082000E4002100260820007B
:100A6800E3000800210027082000E60021002608EE
:100A78002000E500080020003C140314360D8531E1
:100A8800972505300800F0002000101E482D70083A
:100A980023009A0008006A3021009900980122007A
:100AA8009601080020003C1436358531972503301F
:100AB8000800640080010131890B5E2D003421009B
:100AC800A70027088531692508002100A600260807
:100AD80020009A00080021002708A3002608A20089
:100AE800080021002708A5002608A4000800210006
:100AF8002708A1002608A000080020003C10853126
:100B0800DC25043008002400160E890C890C0139F4
:100B180008002000BC10BB010E3008002000BC10EB
:100B2800BB010E300800F000700824009100080096
:100B38000A3400340134043400308331F3230800CC
:100B4800200090190800A42D8531C8250930080017
:100B58008531C8250A3008008531C42505300800CC
:100B68008531DF25003008008531E2250130080095
:100B78008531E225023008008531E2250130080080
:100B88002400961216160800240096161616080059
:100B980023001D121D1608008531D32508002000EA
:100BA8009C17080020009015080024001108080070
:100BB8002400961508002400161508002400961431
:100BC80008002400161408002100901108002400D1
:100BD8009512080020009011080084313D24080077
:0C0BE8000530080001300800080008007B
:020000040001F9
:06000E00FC3FFF3F9F3F95
:00000001FF
