:0400000080312428FF
:100008007E14803120007F08E2000B1F1F2821008A
:10001800901E17282000901E172866088A00650879
:100028000A0080311F282100901C1F282000901CE6
:100038001F288431DF2420006208FF007E10090099
:100048008031262885319D258031E70085319E2520
:100058008031E80085319F258031E9008531A02570
:100068008031EA0020308400003085003730853147
:100078005E257E10200081315D2923001908F100DA
:100088007108F500750803190800EC285630750644
:1000980003195A284130750603195A285030750635
:1000A80003195A284C307506031D08007508F1001D
:1000B80071082000D100D001D00A08007508F100AD
:1000C8007108D2000230F1007108D0000800510810
:1000D8005207F100F201F20DFF307105F300003014
:1000E8007205F400750873067404031DDC280430D7
:1000F800F1007108EA0056305106031D8B2852089A
:10010800F100F2017108CD007208CE00E7284130F5
:100118005106031D97285208F100F2017108E70003
:100128007208E800E72850305106031DA528503012
:100138008531482580312B308531482580317B3009
:10014800E5284C3020005106031DD2280130F1006B
:100158007108CF07C32822000E13B42822000E17F7
:100168008E13E72822000E13BB2822000E178E17C5
:10017800E72822000E138E132000CF01E7284F082E
:10018800003A0319AF28013A0319B228033A0319B0
:10019800B628013A0319B928BD28E7282430853143
:1001A800482580314D308531482580317130E5282A
:1001B80024308531482580314330853148258031C8
:1001C8006730853148252000D0010800D00108009B
:1001D80020005008003A03194A28013A03196228F6
:1001E800033A03196B28EA28080020006808E10090
:1001F8006708E000E136E00C6008143EF0000030CB
:1002080003180130F10084315524803120000C1E80
:1002180042296908031D1F2942308531482580314C
:10022800313085314825803173308531482580311A
:100238002000E901E90A6A080319392900304E0249
:10024800653003194D02031C2D296430CD000030A0
:10025800CE004D08E0006008DC00DD01403083314D
:10026800122301302000EA0208006530E00060082F
:10027800DC00DD01403083311223080020006903CF
:10028800031D54294230853148258031303085316D
:100298004825803172308531482580312000E901B8
:1002A8006530E0006008DC00DD0140308331122356
:1002B800080084317F24813122008E168C16F93093
:1002C8002100A6000030A70085312E258131FF309E
:1002D8008531642581318531D12581314130210035
:1002E800A6000030A7008531372581310B178B1701
:1002F800AD296A0803199929031022008C1E0314DA
:10030800031C892922008C168B2922008C120330A9
:100318002100A9008A30A8005530890B9129A80B23
:100328009129A90B91290032AD29031022008C1EB6
:100338000314031CA22922008C16A42922008C1263
:1003480082302100A800DD30890BA829A80BA82934
:10035800003220000C1A7D2922008C16AD29853127
:1003680088258131003A031DC329DF298531C1253C
:1003780008008531BD2508008531B5250800200015
:100388002F08FA007A08F9000630203E8600870117
:10039800413F8A00403F0A008131013A0319C029D0
:1003A800033A0319BA29013A0319BD29073A03196F
:1003B800C029C029080020003C101730203E8600C4
:1003C8008701403F84008501810A0008853198250E
:1003D800813101302000B8020030B93B38083904B7
:1003E800031DF8290630F9290330FB000030FC0012
:1003F8007B08080022008C018D018E01133021003A
:100408008C0070308D001F308E000E3023008E005F
:100418008D0101308C0024008D018C018E0121009A
:10042800951725008C018D018E01373026008C0030
:10043800F0308D00FF308E003F3027008C00F03008
:100448008D00FF308E000D303C00A4000C30A10060
:1004580010303D009E0012309F0011309C000E307D
:1004680092000E303C00A00008008531DA25823168
:10047800FA0020003708860087017A0881000130D9
:10048800FA007A08B7070130B8020030B93B3808DB
:1004980039040319532A8531C52505300800BC15D0
:1004A8005B2A8531A92508008531AD250800200083
:1004B8002C08FA007A08F90021088A0020080A00A6
:1004C8008231013A0319582A033A0319552A013A85
:1004D8000319552A073A0319582A582A0800F1001F
:1004E800F201F20A20003C19A82A7108F0007008ED
:1004F800B600BC103C153C100E30F0007008BA0075
:10050800F430B4000130B500BC15F730A000053058
:10051800A100AC01F730A2000530A300AD01F7300F
:10052800A4000530A500AE01F730A6000530A700ED
:10053800AF01F530A8000530A900B0018531EF25DD
:1005480082318431F724F20172080800200056082D
:100558003D3E86008701810123001D1DBF2A200022
:1005680056083D3E860087018114210025088A002F
:1005780024080A00823123009D1CCE2A2000560838
:100588003D3E860087010115210023088A002208C4
:100598000A008231200056083D3E86008701010886
:1005A8000319DD2A210021088A0020080A00823167
:1005B800080084313E24080021009012AA30A600C9
:1005C8000230A700853137258231093023009F008A
:1005D80090309D0024309E0067309B009C01FA30CB
:1005E8002100A6000530A700853176258231CD305F
:1005F8002100A6000530A700853170258231F23030
:100608002100A6000530A70085317C252000D301F4
:10061800D601D501D4012100901608002000DF0082
:1006280020005F08823173228331003A0319142BAA
:100638009130F5000430F6005D302000DE005E08E1
:10064800F7008531032583310130F0000030F100D7
:100658005C308431D12483310030F500F600F70195
:100668008431EB2483318531A125833184310E24F3
:100678008331013A031D08003A2B8531EF25833178
:1006880020003C1C522B853188258331003A031900
:10069800522B0F302000D7005708BA0020003A0824
:1006A800D700D801D735D80DD43057078400833008
:1006B800583D8500013F8A00003F0A008331200031
:1006C800D9005908BA0008002000BC15752B8531DF
:1006D800B92508008531D725033008008531B525AF
:1006E800080020002C08FA007A08F90021088A007E
:1006F80020080A008331013A0319722B033A0319BF
:100708006B2B013A03196B2B073A03196E2B722BCB
:100718000800F400700871040319A32B7435203EF7
:10072800860087017008C03F7108C13F7208F30056
:1007380074082C3E86008701730881000800743510
:10074800203E86008701F730C03F0530C13F74085E
:100758002C3E860087018101080020003C100230F1
:10076800FA007A08BB00BE2B8531B925080085310F
:10077800B525080020002E08FA007A08F900043090
:10078800203E86008701413F8A00403F0A008331AE
:10079800023A0319B82B013A0319B82BBB2B0800EE
:1007A800933405344034053457340534B3340134B4
:1007B800393402348234053468340334C13405349E
:1007C800BD340534B9340534B5340534B134053491
:1007D800AD340534A93405348E340534B1340334CA
:1007E8002000DA00DB01DB0ABC180B2CBC14DB018F
:1007F8005A080319022CBA01BA0A062C0230FD0065
:100808007D08BA008531E62583318531242520000D
:100818005B080800F101F10A2000BC18252C3C11E6
:10082800FF30F0007008B6008531EF25843185313E
:10083800E92584318531EC2520003B08F00070085B
:10084800F10071080800790886008701403FF00030
:10085800413FF1007908023E860087010108843192
:10086800D12484310030F500F600F70185310325E5
:100878000230080023001908F00020005608453E01
:1008880086008701700881000130F0007008D607E3
:10089800083056020318D6010130F0007008D4075A
:1008A80008007108F3007008F200F336F20CF33612
:1008B800F20C72082C00980070080339F200053019
:1008C800F235FF3E031D642C7235970008002000A6
:1008D8009E019D019F019B309B009A019010210071
:1008E8009014F930A6000530A70085312E25F03088
:1008F80020009C00080085311A2584318131FE21B1
:10090800843185315025843185310F2584318431F6
:100918006B2484318231E02208000130F00000307D
:10092800F10079088431D12484310030F500F600D3
:10093800F70185310325043008000230F00000304B
:10094800F10079088431D12484310030F500F600B3
:10095800F70185310325023008000130F00000302E
:10096800F10079088431D12484310030F500F60093
:10097800F70185310325023008000230F00000300D
:10098800F10079088431D12484310030F500F60073
:10099800F7018531032504300800F3002000BC1D51
:1009A80008007308F2007208B7007108B9007008EF
:1009B800B800BC11080020009010630864040319F3
:1009C800080064088A0063080A0084310800760871
:1009D800F1007508F0007708F8007808F200023096
:1009E80083318D2308002400951A08008030940074
:1009F800083095009601093092009516080076088F
:100A0800F1007508F0007708F8007808F200003067
:100A180083318D23080080302C0099000F30980016
:100A280040309700CF3025009E0508008030240014
:100A3800940008309500960109309200951208003C
:100A48002000BC1C08008531A52585318331412350
:100A58008531242D210027082000E40021002608E4
:100A68002000E3000800210027082000E6002100FC
:100A780026082000E500080020003C140314360D69
:100A88008531982505300800F0002000101E492DFA
:100A9800700823009A0008006A3021009900980124
:100AA80022009601080020003C143635853198252F
:100AB80003300800640080010131890B5F2D003488
:100AC8002100A700270885316A2508002100A60013
:100AD800260820009A00080021002708A3002608FD
:100AE800A200080021002708A5002608A400080085
:100AF80021002708A1002608A000080020003C10BB
:100B08008531DD25043008002400160E890C890C77
:100B1800013908002000BC10BB010E30080020007D
:100B2800BC10BB010E300800F000700824009100D2
:100B380008000A3400340134043400308331F423CB
:100B48000800200090190800A52D8531C925093015
:100B580008008531C9250A3008008531C5250530CA
:100B680008008531E025003008008531E325013093
:100B780008008531E325023008008531E32501307E
:100B88000800240096121616080024009616161659
:100B9800080023001D121D1608008531D425080001
:100BA80020009C1708002000901508002400110858
:100BB80008002400961508002400161508002400D3
:100BC800961408002400161408002100901108004B
:100BD80024009512080020009011080084313E245A
:0E0BE800080005300800013008000800080071
:020000040001F9
:06000E00FC3FFF3F9F3F95
:00000001FF
