:0400000080312428FF
:100008007E14803120007F08E2000B1F1F2821008A
:10001800901E17282000901E172868088A00670875
:100028000A0080311F282100901C1F282000901CE6
:100038001F288431CF2420006208FF007E100900A9
:10004800803126288531C0258031E9008531C125D8
:100058008031EA008531C2258031EB0020308400F0
:10006800003085003730853157257E1020008131DA
:100078004F2923001908F1007108F50075080319C4
:100088000800E828563075060319562841307506C9
:100098000319562850307506031956284C30750632
:1000A800031D08007508F10071082000D100D00177
:1000B800D00A08007508F1007108D2000230F1007A
:1000C8007108D000080051085207F100F201F20D42
:1000D800FF307105F30000307205F40075087306EF
:1000E8007404031DD8280430F1007108EB00563061
:1000F8005106031D87285208F100F2017108CD004E
:100108007208CE00E32841305106031D9328520897
:10011800F100F2017108E9007208EA00E3285030A2
:100128005106031DA12850308531412580312B30DF
:100138008531412580317B30E1284C302000510643
:10014800031DCE280130F1007108CF07BF28220017
:100158000E13B02822000E178E13E32822000E1368
:10016800B72822000E178E17E32822000E138E13CD
:100178002000CF01E3284F08003A0319AB28013AC1
:100188000319AE28033A0319B228013A0319B5280E
:10019800B928E32824308531412580314D30853117
:1001A800412580317130E128243085314125803165
:1001B8004330853141258031673085314125200024
:1001C800D0010800D001080020005008003A0319A7
:1001D8004628013A03195E28033A03196728E628D6
:1001E800080020006A08E1006908E000E136E00C38
:1001F8006008143EF000003003180130F10084312B
:100208004524803120000C1E392942308531412592
:100218008031313085314125803173308531412538
:10022800803120006B080319302900304E026530F8
:1002380003194D02031C24296430CD000030CE0080
:100248004D08E0006008DC00DD0140308331022306
:1002580001302000EB0208006530E0006008DC0097
:10026800DD014030833102230800423085314125C9
:1002780080313030853141258031723085314125DA
:10028800803165302000E0006008DC00DD0140308E
:1002980083310223080084316F24813122008C16B7
:1002A800F5302100A4000030A50085311E258131DC
:1002B800FF3085315D2581318531C32581313D3060
:1002C8002100A4000030A5008531272581310B17B6
:1002D8008B179E296B0803198A29031022008C1E8C
:1002E8000314031C7A2922008C167C2922008C1204
:1002F80003302100A7008A30A6005530890B8229D7
:10030800A60B8229A70B822900329E2903102200FE
:100318008C1E0314031C932922008C169529220095
:100328008C1282302100A600DD30890B9929A60B9A
:100338009929003220000C1A6E2922008C169E2959
:1003480085317B258131003A031DB429D0298531B7
:10035800B02508008531AC2508008531A4250800A2
:1003680020002F08FA007A08F9000630203E86009F
:100378008701413F8A00403F0A008131013A031951
:10038800B129033A0319AB29013A0319AE29073AEF
:100398000319B129B129080020003C101730203E6C
:1003A80086008701403F84008501810A0008853165
:1003B8008B25813101302000B8020030B93B380864
:1003C8003904031DE9290630EA290330FB0000300F
:1003D800FC007B08080022008C018D018E0113307F
:1003E80021008C0070308D003F308E000E302300CD
:1003F8008E008D0101308C0024008D018C018E014E
:100408002100951725008C018D018E0137302600BB
:100418008C00F0308D00FF308E003F3027008C00BC
:10042800F0308D00FF308E000D303C00A4000C3001
:10043800A10010303D009E0012309F0011309C003A
:100448000E3092000E303C00A00008008531CC250B
:100458008231FA0020003708860087017A08810077
:100468000130FA007A08B7070130B8020030B93B0A
:10047800380839040319442A8531B42505300800A1
:10048800BC154C2A85319825080085319C25080023
:1004980020002C08FA007A08F90021088A002008B0
:1004A8000A008231013A0319492A033A0319462AF4
:1004B800013A0319462A073A0319492A492A080022
:1004C800F100F201F20A20003C19992A7108F000A3
:1004D8007008B600BC103C153C100E30F0007008D7
:1004E800BA00F430B4000130B500BC15E930A00002
:1004F8000530A100AC01E930A2000530A300AD0130
:10050800E930A4000530A500AE01E930A6000530A9
:10051800A700AF01E730A8000530A900B001853178
:10052800E12582318431E724F201720808002000B5
:1005380056083D3E86008701810123001D1DAF2A14
:10054800200056083D3E86008701811466088A000F
:1005580065080A00823123009D1CBE2A2000560827
:100568003D3E860087010115210023088A002208E4
:100578000A008231200056083D3E860087010108A6
:100588000319CD2A210021088A0020080A00823197
:10059800080084312E240800210090129B30A4000A
:1005A8000230A500853127258231093023009F00BC
:1005B80090309D0024309E0067309B009C01EC30F9
:1005C8002100A4000530A500853130258231BC30DA
:1005D8002100A4000530A500853169258231E43069
:1005E8002100A4000530A50085316F252000D30126
:1005F800D601D501D4012100901608002000DF00A3
:1006080020005F08823164228331003A0319042BE9
:100618008130F5000430F6005D302000DE005E0811
:10062800F7008431F32483310130F0000030F10009
:100638005C308431C12483310030F500F600F701C5
:100648008431DB2483318531902583318331FE2346
:100658008331013A031D08002A2B8531E1258331B6
:1006680020003C1C422B85317B258331003A03193D
:10067800422B0F302000D7005708BA0020003A0854
:10068800D700D801D735D80DC43057078400833038
:10069800583D8500013F8A00003F0A008331200051
:1006A800D9005908BA0008002000BC15652B85310F
:1006B800A82508008531C925033008008531A425FF
:1006C800080020002C08FA007A08F90021088A009E
:1006D80020080A008331013A0319622B033A0319EF
:1006E8005B2B013A03195B2B073A03195E2B622B2C
:1006F8000800F400700871040319932B7435203E28
:10070800860087017008C03F7108C13F7208F30076
:1007180074082C3E86008701730881000800743530
:10072800203E86008701E930C03F0530C13F74088C
:100738002C3E860087018101080020003C10023011
:10074800FA007A08BB00AE2B8531A8250800853150
:10075800A425080020002E08FA007A08F9000430C1
:10076800203E86008701413F8A00403F0A008331CE
:10077800023A0319A82B013A0319A82BAB2B08003E
:10078800863405343934053450340534A4340134FE
:100798002A3402347534053458340334B0340534FB
:1007A800AC340534A8340534A4340534A0340534F5
:1007B8009C3405349834053481340534A134033429
:1007C8002000DA00DB01DB0ABC18FB2BBC14DB01C0
:1007D8005A080319F22BBA01BA0AF62B0230FD00A7
:1007E8007D08BA008531D82583318531142520004C
:1007F8005B080800F101F10A2000BC18152C3C1117
:10080800FF30F0007008B6008531E125833185316D
:10081800DB2583318531DE2520003B08F000700898
:10082800F10071080800790886008701403FF00050
:10083800413FF1007908023E8600870101088431B2
:10084800C12484310030F500F600F7018431F32427
:100858000230080023001908F00020005608453E21
:1008680086008701700881000130F0007008D60703
:10087800083056020318D6010130F0007008D4077A
:1008880008007108F3007008F200F336F20CF33632
:10089800F20C72082C00980070080339F200053039
:1008A800F235FF3E031D542C7235970008002000D6
:1008B8009E019D019F019B309B009A019010210091
:1008C8009014EB30A4000530A50085311E25F030CA
:1008D80020009C00080085310A2584318131EF21F0
:1008E80084318531492584318431FF248431843130
:1008F8005B2484318231D02208000130F0000030BE
:10090800F10079088431C12484310030F500F60003
:10091800F7018431F324043008000230F00000307D
:10092800F10079088431C12484310030F500F600E3
:10093800F7018431F324023008000130F000003060
:10094800F10079088431C12484310030F500F600C3
:10095800F7018431F324023008000230F00000303F
:10096800F10079088431C12484310030F500F600A3
:10097800F7018431F32404300800F3002000BC1D83
:1009880008007308F2007208B7007108B90070080F
:10099800B800BC1108002000901063086404031913
:1009A800080064088A0063080A0084310800760891
:1009B800F1007508F0007708F8007808F2000230B6
:1009C80083317D2308002400951A080080309400A4
:1009D80008309500960109309200951608007608AF
:1009E800F1007508F0007708F8007808F200003088
:1009F80083317D23080080302C0099000F30980047
:100A080040309700CF3025009E0508008030240034
:100A1800940008309500960109309200951208005C
:100A28002000BC1C08008531942585318331312391
:100A38008531142D210025082000E4002100240818
:100A48002000E3000800210025082000E80021001C
:100A580024082000E7000800210025082000E600FF
:100A6800210024082000E500080020003C1403149D
:100A7800360D85318B2505300800F0002000101E4A
:100A8800422D700823009A0008006A30210099005E
:100A9800980122009601080020003C143635853163
:100AA8008B2503300800640080010131890B582D23
:100AB80000342100A50025088531632508002100A0
:100AC800A400240820009A00080021002508A3009B
:100AD8002408A200080021002508A1002408A0007D
:100AE800080020003C108531CF2504300800240080
:100AF800160E890C890C013908002000BC10BB01B6
:100B08000E3008002000BC10BB010E300800F000B9
:100B1800700824009100080000308331E4230800A5
:100B2800200090190800942D8531B8250930080057
:100B38008531B8250A3008008531B425053008000C
:100B48008531D225003008008531D52501300800CF
:100B58008531D525023008008531D52501300800BA
:100B68002400961216160800240096161616080079
:100B780023001D121D1608000A3400340434853180
:100B8800C625080020009C170800200090150800C2
:100B980024001108080024009615080024001615E2
:100BA80008002400961408002400161408002100E8
:100BB80090110800240095120800200090110800E8
:100BC80084312E2408000530080001300800080090
:020BD800080013
:020000040001F9
:06000E00FC3FFF3F9F3F95
:00000001FF
