:10000000803125280A3400347E14803120007F0896
:10001000D5000B1F20282100901E18282000901EBC
:10002000182821004C088A004B080A00803120283B
:100030002100901C20282000901C20288731912727
:1000400020005508FF007E1009008031272821007C
:10005000803102208031CD00803103208031CE00FC
:10006000203084000030850024308731FA27803129
:10007000A03084000030850012308731FA277E10CE
:10008000200081316D2923001908F1007108F50065
:10009000750803190800BD2856307506031958283D
:1000A000413075060319582850307506031D0800A5
:1000B0007508F10071082000BE00BD01BD0A0800EE
:1000C0007508F1007108BF000230F1007108BD0031
:1000D00008003E083F07F100F201F20DFF30710504
:1000E000F30000307205F400750873067404031DF4
:1000F000AD2856303E06031D86283F08F100F20168
:1001000071082100B0007208B100B8284130200009
:100110003E06031D94283F08F100F20171082100FA
:10012000CD007208CE00B828503020003E06031DD6
:10013000A32850308F315B2780312B308F315B27E4
:1001400080317B30B62824308F315B2780314D30B1
:100150008F315B2780317130B62824308F315B2797
:10016000803143308F315B27803167308F315B279F
:100170002000BD010800BD01080020003D08003A34
:1001800003194C28013A03196028033A0319692816
:10019000BB28080047302000D2005208C900E830D0
:1001A00082314A22803120004A08D4004908D30015
:1001B0000330F0000030F10021004E08F3004D083C
:1001C000F2008331A623803170081F3EF800003012
:1001D00003180130F9008631DA26803120000C1E28
:1001E000082942308F315B27803131308F315B27D6
:1001F000803173308F315B2780312000C901C90AFB
:100200000530D2005208CA008030843140240800F2
:1002100042308F315B27803130308F315B27803126
:1002200072308F315B2780312000C901C90ACA01B1
:1002300080308431402408007E1C20298131BC2973
:100240008F3141278131003A031D30294D298F31EB
:100250006B2708008F31732708008F318327080030
:1002600020002F082100B4003408B3000630203EDF
:1002700086008701413F8A00403F0A008131013AF0
:1002800003192D29033A03192729013A03192A29A9
:10029000073A03192D292D29080020003C1017309A
:1002A000203E86008701403F84008501810A0008C6
:1002B0008F313B27813101302000B8020030B93B3B
:1002C00038083904031D66290630672903302100E8
:1002D000B5000030B60035080800873105278131A8
:1002E00026302100C1004108BD000230C200420892
:1002F000BE00683084310D24813127302100C100D7
:100300004108BD001030C2004208BE006830843190
:100310000D248131CA302000D6000030D7008F3143
:10032000D9278131FF308F31472781318E31CC265B
:10033000813143302000D6000030D7008F31D027E4
:1003400081310B178B17031022008C1E0314031C22
:10035000AC2922008C16AE2922008C120330210019
:10036000C2008A30C1005530890BB429C10BB429B1
:10037000C20BB4290032A3298F3123278131003ADF
:10038000031DCC29E8298E31DB2608008E31DF26BB
:1003900008008E31E726080020002F08FA007A08AE
:1003A000F9000630203E86008701413F8A00403F29
:1003B0000A008131013A0319C929033A0319C329F3
:1003C000013A0319C629073A0319C929C92908009E
:1003D00020003C101730203E86008701403F8400FB
:1003E0008501810A00088F310F27813101302000FB
:1003F000B8020030B93B38083904031D012A063021
:10040000022A0330FB000030FC007B0808007E1C41
:100410000B2A8231C72A8E31C32682312100B400D3
:100420002000370886008701210034088100013050
:10043000B40034082000B7070130B8020030B93BDF
:10044000380839040319282A8F310327053008009A
:10045000BC15302A8F319B2708008F319327080065
:1004600020002C082100B4003408B300200021082B
:100470008A0020080A008231013A03192D2A033A22
:1004800003192A2A013A03192A2A073A03192D2A9D
:100490002D2A08002000CF00D001D10120004F08F4
:1004A000833139238231003A03194E2A6730F5002F
:1004B0000630F60050302000CB004B08F7008731A3
:1004C000CE2782310130F0000030F1004930873111
:1004D000832782310030F500F600F7018731B62717
:1004E00082318E31FB268231863137268231013AC4
:1004F0000319742A20005108CC005008CB004C0886
:10050000CB00CC015008CE00CD014B084D04C900F2
:100510004C084E04CA00080022008C018D018E0197
:10052000133021008C0070308D00FF308E008E3033
:1005300023008E008D0101308C0024008D018C0180
:100540008E012100951725008C018D018E01373019
:1005500026008C00F0308D00FF308E003F302700E9
:100560008C00F0308D00FF308E000D303C00A40078
:100570000C30A10010303D009E0012309F00113061
:100580009C000E3092000E303C00A00008008E311E
:10059000A8268231FA0020003708860087017A08F1
:1005A00081000130FA007A08B7070130B802003044
:1005B000B93B380839040319E12A8E31D7260530B2
:1005C0000800BC15E92A8E31F32608008E31EF268B
:1005D000080020002C08FA007A08F90021088A0097
:1005E00020080A008231013A0319E62A033A031966
:1005F000E32A013A0319E32A073A0319E62AE62A0D
:1006000008002000D700D801D80A3C19372B57081A
:10061000D6005608B600BC103C153C100E30D60073
:100620005608BA00F430B4000130B500BC152F30C4
:10063000A0000F30A100AC012F30A2000F30A300AA
:10064000AD012F30A4000F30A500AE012F30A60061
:100650000F30A700AF013530A8000F30A900B0015E
:100660008E31AE26833187319E272000D80158086D
:100670000800F100F201F20A20003C196E2B71080B
:10068000F0007008B600BC103C153C100E30F000B5
:100690007008BA00F430B4000130B500BC152F303A
:1006A000A0000F30A100AC012F30A2000F30A3003A
:1006B000AD012F30A4000F30A500AE012F30A600F1
:1006C0000F30A700AF013530A8000F30A900B001EE
:1006D0008E31932683318731C227F20172080800D8
:1006E00020004308A03E86008701810123001D1DD4
:1006F000852B20004308A03E86008701811421003D
:100700004A088A0049080A00833123009D1C942B63
:1007100020004308A03E86008701011521004808FB
:100720008A0047080A00833120004308A03E860063
:10073000870101080319A32B210046088A004508F8
:100740000A00833108008631C3260800F501F6014E
:10075000700871040319D52BF701F70AF11BBA2BA6
:100760000130F035F10D890BB12B0130F400740824
:10077000F707AE2B0130F535F60D890BBB2B710851
:100780007302031DC52B70087202031CCC2B70086A
:10079000F2027108F33B75140130F136F00C890B4D
:1007A000CD2B0130F702031DBA2B7608F100750836
:1007B000F00008002100901270302000D6000330B5
:1007C000D7008F31D0278331093023009F0090302C
:1007D0009D0024309E0067309B009C018A302000E1
:1007E000D6000E30D7008F31BE278331CF302000A6
:1007F000D6000E30D7008F31C727833190302000CC
:10080000D6000E30D7008F31B5272000C001C301BC
:10081000C201C1012100901608002100C000210082
:100820004008833101238431003A03190F2C5030E2
:100830002000DB000630DC00BE302100BF003F0896
:100840002000DD0087316627843101302000D6008A
:100850000030D700BD30873175278431003020004B
:10086000DB00DC00DD018731572784318F310B2716
:10087000843186311E268431013A031D0800392C4B
:100880002000CC0020004C08833139238431003A09
:100890000319422C5030F5000630F6004A30200093
:1008A000CB004B08F7008731CE2784310130F000B0
:1008B0000030F10049308731832784310030F50062
:1008C000F600F7018731B62784318E31FB2684315B
:1008D000863137268431013A031D0800682C7E1CBE
:1008E000732C85313A2D2000BC15802C8F317B274D
:1008F00008008E31C626033008008F318327080098
:1009000020002C082100B4003408B3002000210886
:100910008A0020080A008431013A03197D2C033A29
:100920000319762C013A0319762C073A0319792C0E
:100930007D2C08008E31AE26843120003C1CAC2C6E
:100940008F3141278431003A0319AC2C0F3021003C
:10095000B70037082000BA0020003A082100B7008D
:10096000B801B735B80DA630370784008530383D5B
:100970008500013F8A00003F0A0084312100B90050
:1009800039082000BA0008007E1CC82C8531832D50
:1009900020003C1002302100B40034082000BB00CD
:1009A000D72C8F317B2708008F3183270800200048
:1009B0002E082100B4003408B3000430203E860025
:1009C0008701413F8A00403F0A008431023A0319FF
:1009D000D12C013A0319D12CD42C08008E31932646
:1009E000843120003C1CFF2C8F3123278431003AB6
:1009F0000319FF2C0F302000C4004408BA00200067
:100A00003A08C400C501C435C50DA63044078400AA
:100A10008530453D8500013F8A00003F0A00853151
:100A20002000C6004608BA0008002000DA00560878
:100A3000570403192C2D5A35203E8600870156088D
:100A4000C03F5708C13F5808D9005A082C3E8600BD
:100A500087015908810008005A35203E8600870129
:100A60002F30C03F0F30C13F5A082C3E860087010F
:100A7000810108002000BC15472D8E31E3260800B7
:100A80008E31AB26033008008E31E72608002000A7
:100A90002C08FA007A08F90021088A0020080A00C8
:100AA0008531013A0319442D033A03193D2D013ACA
:100AB00003193D2D073A0319402D442D0800F40079
:100AC000700871040319752D7435203E8600870166
:100AD0007008C03F7108C13F7208F30074082C3ED3
:100AE000860087017308810008007435203E860067
:100AF00087012F30C03F0F30C13F74082C3E860065
:100B000087018101080020003C100230FA007A08B9
:100B1000BB00902D8E31E32608008E31E7260800B9
:100B200020002E08FA007A08F9000430203E8600E2
:100B30008701413F8A00403F0A008531023A03198C
:100B40008A2D013A03198A2D8D2D0800A3340F3404
:100B5000AA340734E53407341C3401340734023432
:100B6000EC340F346F3404346B340F3473340F347B
:100B70007B340F3483340F348B340F3493340F347D
:100B80009B340F34AC340F34C43404342100BB0024
:100B9000BC01BC0A2000BC18E22DBC142100BC0121
:100BA0003B080319D72D2000BA01BA0ADD2D023007
:100BB0002100BA003A082000BA008E31B7268531EC
:100BC0008F31F62721003C0808007E1CE92D863174
:100BD000AC2E2100330886008701403F2000D6005C
:100BE000413FD70021003308023E860087010108FB
:100BF00087317527853100302000DB00DC00DD0106
:100C000087316627023008002000C700C801C80AE3
:100C1000BC181B2EBC14C80147080319122EBA01B8
:100C2000BA0A162E0230FD007D08BA008E319C26CD
:100C300086318F31E2272000480808002000D701C4
:100C4000D70ABC18352E3C11FF30D6005608B60026
:100C50008E31AE2686318E31B42686318E31B12664
:100C600020003B08D6005608D70057080800F101BD
:100C7000F10A2000BC184E2E3C11FF30F000700825
:100C8000B6008E31932686318E31992686318E318B
:100C9000962620003B08F0007008F100710808005B
:100CA0007E1C542E8731172F01302000D6000030D3
:100CB000D7002100330887317527863100302000A6
:100CC000DB00DC00DD0187316627043008007E1C74
:100CD0006B2E8731272F02302000D6000030D7003E
:100CE0002100330887317527863100302000DB0072
:100CF000DC00DD0187316627023008007E1C822E71
:100D00008731372F01302000D6000030D700210076
:100D1000330887317527863100302000DB00DC0086
:100D2000DD0187316627023008007E1C992E87314D
:100D3000472F02302000D6000030D70021003308B2
:100D400087317527863100302000DB00DC00DD01B3
:100D50008731662704300800790886008701403F04
:100D6000F000413FF1007908023E8600870101084A
:100D70008731832786310030F500F600F70187318F
:100D8000CE270230080023001908F0002000430895
:100D9000A83E86008701700881000130F0007008CD
:100DA000C307083043020318C3010130F000700884
:100DB000C10708007908FB007808FA00FB36FA0C36
:100DC000FB36FA0C7A082C00980078080339FA00F0
:100DD0000530FA35FF3E031DE92E7A3597000800ED
:100DE00020009E019D019F019B309B009A01901065
:100DF000210090148B302000D6000E30D7008F31A8
:100E0000D927F03020009C0008008731F027873177
:100E100082318C2287318F31542787318731DA270D
:100E200087318631F02687318331DA23080001309B
:100E3000F0000030F10079088731832787310030D6
:100E4000F500F600F7018731CE27043008000230A4
:100E5000F0000030F10079088731832787310030B6
:100E6000F500F600F7018731CE2702300800013087
:100E7000F0000030F1007908873183278731003096
:100E8000F500F600F7018731CE2702300800023066
:100E9000F0000030F1007908873183278731003076
:100EA000F500F600F7018731CE2704300800200056
:100EB0005C08D7005B08D6005D082100B20032084C
:100EC0002000D800023085311525080020005C087C
:100ED000D7005B08D6005D082100B2003208200070
:100EE000D80000308531152508002000D900BC1D30
:100EF00008005908D8005808B7005708B900560824
:100F0000B800BC110800F3002000BC1D08007308E5
:100F1000F2007208B7007108B9007008B800BC117F
:100F20000800200090102100430844040319080021
:100F300044088A0043080A00873108002400951AF3
:100F40000800803094000830950096010930920026
:100F5000951608007E1CAE2F8F31632F20003C14A5
:100F60000314360D8F313B27053008007608F10059
:100F70007508F0007708F8007808F2000230853133
:100F80005F2508002400951A08008030940008307E
:100F90009500960109309200951608007608F10038
:100FA0007508F0007708F8007808F2000030853105
:100FB0005F25080080302C0099000F3098004030E9
:100FC0009700CF3025009E0508007E1CE92F8F3149
:100FD0004D2F20003C1436358F313B27033008005D
:100FE000803024009400083095009601093092006A
:100FF00095120800640080010131890BFB2F003439
:101D14000800080001300800053008008631C32699
:101D240008002000901108002400951208002100EA
:101D340090110800240016140800240096140800CA
:101D44002400161508002400961508002400110824
:101D540008002000901508002000901108002400BD
:101D640095120800210090110800240016140800A0
:101D74002400961408002400161508002400961563
:101D84000800240011080800200090150800200015
:101D94009C1708008E31C926080023001D121D1649
:101DA400080024009616161608002400961216162B
:101DB40008008E319F26013008008E319F260230A4
:101DC40008008E319F26013008008E31A226003093
:101DD40008008E31D726053008008E31D3260A300C
:101DE40008008E31D326093008002000901908001D
:101DF400F72E0030863104260800240096161616A5
:101E040008002400961216160800200090190800F5
:101E1400072F00308531C6250800F0007008240023
:101E2400910008002000BC10BB010E300800200007
:101E3400BC10BB010E3008002000D60056089A00E2
:101E440008002400160E890C890C013908002000B2
:101E54003C108E31A526043008007E1C332F8E31B1
:101E64008C2E013008007E1C392F8E318E2E0530C9
:101E740008002000D6005608240091000800240021
:101E8400160E890C890C013908002000D700570868
:101E94008F311E27080020003C1436358F310F2760
:101EA400033008006A30210099009801220096014D
:101EB4000800F0002000101E5C2F700823009A0018
:101EC400080020003C140314360D8F310F27053011
:101ED40008007E1C6F2F8E31DB2E8E31BA26013026
:101EE40008007E1C772F8E31DF2E8E31BA26023009
:101EF40008007E1C7F2F8E31E32E8E31BA260130EE
:101F040008007E1C872F8E31E72E8E31BD260030CF
:101F140008007E1C8F2F8E31EB2E8F310327053066
:101F240008007E1C972F8E31EF2E8E31FF260A304B
:101F340008007E1C9F2F8E31F32E8E31FF26093030
:101F440008007E1CA72F8F31142F2000BC10BB016A
:101F54000E3008007E1CB02F8F31192F2000BC10CA
:101F6400BB010E300800200057082100C6002000E5
:101F740056082100C5000800200057082100CA00A7
:101F8400200056082100C90008002000570821003D
:101F9400C800200056082100C70008002000570888
:101FA4002100CC00200056082100CB0008002000AE
:101FB40057082100C400200056082100C30008006F
:101FC4002000BC1C08008E31F7268F318431EE24AA
:101FD4008F31E22F7E1CF02F8F31292F20003C10EF
:101FE4008E31C026043008002000BC1C08008F314C
:0C1FF40007278F3184319A248F31F62F9B
:020000040001F9
:06000E00FC3FFF3F9F3F95
:00000001FF
