:1000000080313828053008007E14803120007F08B8
:10001000CA000B1F33282100901E17282000901EB5
:1000200017285E088A005D080A0080313328210005
:10003000901C21282000901C21288E3139268031E7
:1000400033282100141C2B282000141C2B288E314F
:10005000E126803133282100941C33282000941C91
:1000600033288D31AB2520004A08FF007E1009009F
:1000700080313A288731FD278031DF008731FE2724
:100080008031E0008731FF278031E100203084009B
:10009000003085001D308E3185268031A0308400EF
:1000A000003085001D308E3185267E102000813184
:1000B000A72923001908F1007108F5007508031934
:1000C0000800FA2856307506031972284130750663
:1000D0000319722850307506031972284C307506C2
:1000E000031D08007508F10071082000B600B10179
:1000F000B10A08007508F1007108B7000230F1007C
:100100007108B100080036083707F100F201F20D5E
:10011000FF307105F30000307205F40075087306B6
:100120007404031DEA280430F1007108E100563020
:100130003606031DA0283708F1007108B300F52822
:1001400041303606031DA9283708F1007108E00088
:10015000F52850303606031DB72850308E319926C9
:1001600080312B308E31992680317B30F3284C3012
:1001700020003606031DE0280130F1007108B007A9
:10018000D52822000E13C62822000E178E13F5283C
:1001900022000E13CD2822000E178E17F5282200FC
:1001A0000E138E132000B001F528300884000530AE
:1001B00004020318CF2888310435003E8200F52858
:1001C00024308E31992680314D308E319926803100
:1001D0007130F32824308E319926803143308E31AE
:1001E0009926803167308E3199262000B1010800B0
:1001F000B101080020003108003A03196228013AD1
:1002000003197A28033A03198328F82808002000E4
:10021000B209320803193A296008C6000330C6360D
:10022000890B0F294608323EF000003003180130D8
:10023000F10087319827813147302000C6004608F9
:10024000C20068308431CC2481312000C7004708C7
:10025000B4026008C600C7014608F0004708F10074
:100260003408C800C9014808F2004908F3008F317A
:100270000F27080020006008C6000330C636890B2F
:100280003E294608323EF000003003180130F100EC
:1002900087319827813120000C1E8C29B5015F0819
:1002A000031D612942308E319926813131308E31E2
:1002B0009926813173308E31992681312000DF01FA
:1002C000DF0A61080319782965303302031C6C29A1
:1002D0006430C6004608B3003308C6004608C200B2
:1002E000C30140308431FE2401302000E1020800C7
:1002F0000130C6004608B50765303502031C822967
:1003000022008E1265302000C6004608C200C301DC
:1003100040308431FE24080020005F03031D9E2925
:1003200042308E319926813130308E31992681319B
:1003300072308E31992681312000DF016530C60090
:100340004608C200C30140308431FE2408008731D2
:10035000AE27813122000E160E138E138E168C16C8
:1003600026302100C8004808C4000230C9004908EE
:10037000C500683084319924813127302100C800BC
:100380004808C4001030C9004908C50068308431ED
:100390009924813107302000CB000130CC008E3110
:1003A00079268131FF308E317F2681318D31E725ED
:1003B000813159302000CB000030CC008E317326C3
:1003C00081310B178B170B2A61080319F6290310CB
:1003D00022008C1E0314031CF02922008C16F22923
:1003E00022008C128231122281310B2A031022004A
:1003F0008C1E0314031CFF2922008C16012A2200E4
:100400008C120E1682302100C800DD30890B062ABE
:10041000C80B062A003220000C1AE42922000E160E
:100420008C160B2A2000D00105305002031808005A
:100430003308CB00CC01CB09CC09CB0A0319CC0A79
:100440004B08643ECD0000304C3DCE004E08803A53
:10045000CF0080304F02031D2F2A05304D02031CB0
:10046000342A22000E12362A22000E1620003008EE
:10047000031D5B2A67306002031C472A0310220019
:100480000E1F0314031C582A22000E175A2A62302A
:10049000200060020318582A22000E1303108E1F3A
:1004A0000314031C562A22008E175B2A22005A2AA4
:1004B00022000E138E1382302000CB00DD30890B1A
:1004C0005F2ACB0B5F2A003201302000CB004B08A3
:1004D000D007142A7E1C6E2A8231BA2A8E316126F8
:1004E0008231003A031D7E2A9B2A8E31A9260800FC
:1004F0008E31B12608008E31C126080021002F0858
:100500002000D5005508D4000630A03E86008701A3
:10051000413F8A00403F0A008231013A03197B2A99
:10052000033A0319752A013A0319782A073A03197D
:100530007B2A7B2A080021003C101730A03E860051
:100540008701403F84008501810A00088E315B26C7
:10055000823101302100B8020030B93B380839043B
:10056000031DB42A0630B52A0330BD000030BE009A
:100570003D0808008E3143268231003A031DCA2A05
:10058000E62A8D31F62508008D31FA2508008E31D6
:100590000226080021002F08FA007A08F900063028
:1005A000A03E86008701413F8A00403F0A00823119
:1005B000013A0319C72A033A0319C12A013A031958
:1005C000C42A073A0319C72AC72A080021003C1089
:1005D0001730A03E86008701403F84008501810AD4
:1005E00000088E312A26823101302100B802003005
:1005F000B93B38083904031DFF2A0630002B0330AD
:10060000FB000030FC007B0808007E1C092B8331B6
:10061000C12B8D31DE2583312000D5002100370824
:10062000860087012000550881000130D50055085B
:100630002100B7070130B8020030B93B380839044F
:100640000319262B8E311E2605300800BC152E2BD3
:100650008E31D92608008E31D126080021002C08C1
:100660002000D5005508D400210021088A00200868
:100670000A008331013A03192B2B033A0319282B63
:10068000013A0319282B073A03192B2B2B2B0800AF
:100690002000CC00CD01CD0A21003C19832B200085
:1006A0004C08CB004B082100B600BC103C153C1098
:1006B0000E302000CB004B082100BA00F430B4000B
:1006C0000130B500BC154F30A0000E30A100AC01C8
:1006D0004F30A2000E30A300AD014F30A4000E3009
:1006E000A500AE014F30A6000E30A700AF01553077
:1006F000A8000E30A900B0018D31C92583318F319A
:1007000088272000CD0120004D08080022008C0120
:100710008D018E01133021008C0070308D000F3060
:100720008E000E3023008E008D0101308C002400DD
:100730008D018C018E012100951725008C018D0102
:100740008E01373026008C00F0308D00FF308E0097
:100750003F3027008C00F0308D00FF308E000D30D0
:100760003C00A4000C30A10010303D009E0012306F
:100770009F0011309C000E3092000E303C00A00013
:1007800008008D31C3258331FA0021003708860027
:1007900087017A0881000130FA007A08B707013032
:1007A000B8020030B93B380839040319DB2B8D310E
:1007B000F22505300800BC15E32B8E310E2608000B
:1007C0008E310A26080021002C08FA007A08F90068
:1007D00021088A0020080A008331013A0319E02B1E
:1007E000033A0319DD2B013A0319DD2B073A0319EC
:1007F000E02BE02B0800F100F201F20A21003C1985
:10080000302C7108F0007008B600BC103C153C108C
:100810000E30F0007008BA00F430B4000130B500BA
:10082000BC154F30A0000E30A100AC014F30A2002B
:100830000E30A300AD014F30A4000E30A500AE0174
:100840004F30A6000E30A700AF015530A8000E3083
:10085000A900B0018D31AE2583318F316427F201BB
:100860007208080020003C08203E860087018101B4
:1008700023001D1D462C20003C08203E86008701D9
:1008800081145C088A005B080A00843123009D1CE7
:10089000542C20003C08203E8600870101155A0890
:1008A0008A0059080A00843120003C08203E860056
:1008B000870101080319632C21004B088A004A08AC
:1008C0000A0084310800873129270800210090128E
:1008D00032302000CB000430CC008E3173268431BE
:1008E000093023009F0090309D0024309E00673027
:1008F0009B009C01A4302000CB000D30CC008E3139
:1009000067268431EA302000CB000D30CC008E31D8
:100910006D268431A8302000CB000D30CC008E3104
:10092000FC262000B901BC01BB01BA0121009016D0
:1009300008002100C7002100470883314823843183
:10094000003A03199B2C40302000D0000730D10022
:10095000C5302100C60046082000D2008F31942700
:10096000843101302000CB000030CC00C43087310E
:10097000D827843100302000D000D100D2018F313F
:10098000A12784318E312626843186318426843114
:10099000013A031D0800C52C2000C400C501200039
:1009A00044088331FB238431003A0319CF2C6C3087
:1009B000F5000730F60045302000C3004308F7007B
:1009C0008F31582784310130F0000030F10042307F
:1009D0008F31AE2784310030F500F600F7018F31FA
:1009E000702784318E31162684318631F926843180
:1009F000013A0319F52C2000450808002000C50025
:100A0000200045088331FB238431003A0319002D6F
:100A10004030F5000730F60043302000C4004408A1
:100A2000F7008F31582784310130F0000030F10099
:100A300042308F31AE2784310030F500F600F701E7
:100A40008F31702784318E31162684318631F92614
:100A50008431013A031D0800262D7E1C312D85317D
:100A6000F82D2100BC153E2D8E31B92608008D31A0
:100A7000E125033008008E31C126080021002C0832
:100A80002000D5005508D400210021088A00200844
:100A90000A008531013A03193B2D033A0319342D1D
:100AA000013A0319342D073A0319372D3B2D08005D
:100AB0007E1C5C2D8631412E21003C10023020002E
:100AC000D50055082100BB006B2D8E31B9260800DA
:100AD0008E31C126080021002E082000D5005508BF
:100AE000D4000430A03E86008701413F8A00403F89
:100AF0000A008531023A0319652D013A0319652D63
:100B0000682D08008D31AE25853121003C1C942DC7
:100B10008E3143268531003A0319942D0F30200081
:100B2000BD003D082100BA0021003A082000BD00A8
:100B3000BE01BD35BE0D64303D07840086303E3DAC
:100B40008500013F8A00003F0A0085312000BF0078
:100B50003F082100BA0008008D31C92585312100E8
:100B60003C1CBD2D8E3161268531003A0319BD2D07
:100B70000F302100BF003F08BA0021003A08BF0033
:100B8000C001BF35C00D64303F0784008630403D52
:100B90008500013F8A00003F0A0085312100C10025
:100BA0004108BA0008002000CF004B084C0403198C
:100BB000EA2D4F35A03E860087014B08C03F4C0808
:100BC000C13F4D08CE004F08AC3E860087014E085D
:100BD000810008004F35A03E860087014F30C03F9E
:100BE0000E30C13F4F08AC3E8600870181010800EE
:100BF0002100BC15052E8D31FE2508008D31C6253E
:100C0000033008008E310226080021002C08FA006B
:100C10007A08F90021088A0020080A008631013A82
:100C20000319022E033A0319FB2D013A0319FB2D78
:100C3000073A0319FE2D022E0800F4007008710413
:100C40000319332E7435A03E860087017008C03F1B
:100C50007108C13F7208F3007408AC3E860087013A
:100C60007308810008007435A03E860087014F306C
:100C7000C03F0E30C13F7408AC3E86008701810141
:100C8000080021003C100230FA007A08BB004E2E0A
:100C90008D31FE2508008E310226080021002E0825
:100CA000FA007A08F9000430A03E86008701413F2F
:100CB0008A00403F0A008631023A0319482E013A61
:100CC0000319482E4B2E0800EA340E347C340F34BE
:100CD00042340F346A3402340534033419340F3487
:100CE0002D340534A9340E34B1340E34B9340E34F5
:100CF000C1340E34C9340E34D1340E34D9340E34E8
:100D0000F3340E34583405342000CC01CC0A2100D1
:100D1000BC189F2E3C11FF302000CB004B08210057
:100D2000B6008D31C92586318D31CF2586318D3183
:100D3000CC2521003B082000CB004B08CC00200034
:100D40004C0808002000C000C101C10A2100BC18E5
:100D5000BD2EBC142000C10140080319B32E210090
:100D6000BA01BA0AB82E0230FD007D082100BA008F
:100D70008D31B72586318F310527200041080800C5
:100D80007E1CC42E8731122F200054088600870154
:100D9000403FCB00413FCC005408023E8600870113
:100DA00001088731D827863100302000D000D100DB
:100DB000D2018F319427023008002100C200C30104
:100DC000C30ABC18F62EBC14C30142080319EB2E4B
:100DD000BA01BA0AF12E02302000D60056082100CE
:100DE000BA008D31D22586318F3123272100430867
:100DF0000800F101F10A2100BC18102F3C11FF304E
:100E0000F0007008B6008D31AE2586318D31B425E5
:100E100086318D31B12521003B08F0007008F100CA
:100E200071080800790886008701403FF000413FC3
:100E3000F1007908023E8600870101088F31AE2754
:100E400087310030F500F600F7018F315827023066
:100E5000080023001908F00020003C08283E860006
:100E60008701700881000130F0007008BC0708306D
:100E70003C020318BC010130F0007008BA070800FA
:100E80007E1C442F8731ED2F01302000CB00003035
:100E9000CC0054088731D827873100302000D0009B
:100EA000D100D2018F319427043008007E1C5A2FC4
:100EB0008F31DC2F02302000CB000030CC005408F2
:100EC0008731D827873100302000D000D100D201EF
:100ED0008F319427023008007E1C702F8F31CC2F69
:100EE00001302000CB000030CC0054088731D827D7
:100EF000873100302000D000D100D2018F319427FB
:100F0000023008007E1C862F8F31BC2F023020005B
:100F1000CB000030CC0054088731D827873100300F
:100F20002000D000D100D2018F3194270430080076
:100F30007108F3007008F200F336F20CF336F20C8D
:100F400072082C00980070080339F2000530F23561
:100F5000FF3E031DA72F7235970008008F312D2704
:100F600087318331862387318E31922687318F31C5
:100F70004D2787318731C32787318F31EC27873160
:100F800084316624080020009E019D019F019B3052
:100F90009B009A01901021009014A5302000CB00F6
:100FA0000D30CC008E317926F03020009C000800F6
:100FB0002000CE002100BC1D080020004E08CD00FE
:100FC0004D082100B70020004C082100B900200086
:100FD0004B082100B800BC1108000130F0000030BF
:100FE000F10079088F31AE2787310030F500F60027
:100FF000F7018F3158270430080001342D340434B0
:101000008031F5288031C1288031C4288031C8283A
:041010008031CB2838
:101B48000800080001300800873129270800200014
:101B58009410080020009011080024009512080035
:101B6800210090110800240016140800240096147F
:101B78000800240016150800240096150800240003
:101B88001108080020009015080020009011080096
:101B98002400951208002100901108002400161452
:101BA80008002400961408002400161508002400D4
:101BB8009615080024001108080020009015080058
:101BC80020009C1708008D31E425080023001D1211
:101BD8001D160800240096161616080024009612F2
:101BE800161608008D31BA25013008008D31BA2546
:101BF800023008008D31BA25013008008D31BD252D
:101C0800003008008D31F225053008008D31EE25B1
:101C18000A3008008D31EE2509300800200090199F
:101C28000800122E00308631A226080024009616DD
:101C3800161608002400961216160800200090199F
:101C48000800222E00308631DD260800F0007008DA
:101C58002400910008002100BC10BB010E300800D0
:101C68002100BC10BB010E300800200090108F31FD
:101C7800372708002000CB004B089A0008002400F2
:101C8800160E890C890C0139080021003C108D3191
:101C9800C025043008007E1C532E8D31A62D01303E
:101CA80008007E1C592E80310228053008002000CB
:101CB800CB004B082400910008002400160E890C64
:101CC800890C0139080020004C08DC004B08DB00B7
:101CD800080020004C08DA004B08D9000800200052
:101CE8004C08DE004B08DD00080020004C08D80036
:101CF8004B08D70008002000CC004C088E313E2647
:101D08000800640080010131890B862E003421000F
:101D18003C1436358E312A26033008006A302100FB
:101D280099009801220096010800F0002000101E7A
:101D38009A2E700823009A00080021003C1403140E
:101D4800360D8E312A26053008007E1CAD2E8D31C9
:101D5800F62D8D31D525013008007E1CB52E8D312C
:101D6800FA2D8D31D525023008007E1CBD2E8D310F
:101D7800FE2D8D31D525013008007E1CC52E8E31F3
:101D8800022E8D31D825003008007E1CCD2E8E31D4
:101D9800062E8E311E26053008007E1CD52E8E316B
:101DA8000A2E8E311A260A3008007E1CDD2E8E314E
:101DB8000E2E8E311A2609300800200014102B0030
:101DC8001808F00070082000B80008007E1CEE2EED
:101DD8008E312F2E2100BC10BB010E3008007E1C56
:101DE800F72E8E31342E2100BC10BB010E300800B6
:101DF80020004C082100CB0020004B082100CA001D
:101E080008002100BC1C08008E3112268F31853154
:101E180082258F31052F71082B008D0070088C00EA
:101E280073088F0072088E0008007E1C1D2F8E31EB
:101E3800492E21003C108D31DB250430080021009B
:101E4800BC1C08008E3122268F318531AC258F319C
:101E5800232F803024009400083095009601093023
:101E6800920095120800200057085804031908002A
:101E780058088A0057080A008F3108007E1C462F30
:101E88008E318B2E21003C1436358E315B26033083
:101E9800080080302C0099000F30980040309700DF
:101EA800CF3025009E0508007608F1007508F0007F
:101EB8007708F8007808F200003086311D260800FF
:101EC8002400951A08008030940008309500960187
:101ED80009309200951608007608F1007508F000A0
:101EE8007708F8007808F200023086311D260800CD
:101EF8007E1C802F8E31A12E21003C140314360D38
:101F08008E315B26053008002400951A08008030C1
:101F18009400083095009601093092009516080043
:101F280020005108CC005008CB005208D3005308B9
:101F3800CD0000308531D325080020005108CC00A1
:101F48005008CB005208D3005308CD000230853129
:101F5800D3250800F3002100BC1D08007308F20017
:101F68007208B7007108B9007008B800BC11080001
:101F78000230F0000030F10079088F31AE278F3140
:101F88000030F500F600F7018F31582704300800BB
:101F98000130F0000030F10079088F31AE278F3121
:101FA8000030F500F600F7018F315827023008009D
:101FB8000230F0000030F10079088F31AE278F3100
:101FC8000030F500F600F7018F315827023008007D
:101FD80085302C0094002B00910102309000FF30D6
:101FE8009300FE3092009501940120001410941083
:081FF8002100141494140800E8
:020000040001F9
:06000E00FC3FFF3F9F3F95
:00000001FF
