:1000000080313828053008007E14803120007F08B8
:10001000CA000B1F33282100901E17282000901EB5
:1000200017285E088A005D080A0080313328210005
:10003000901C21282000901C21288E318B26803195
:1000400033282100141C2B282000141C2B288F314E
:100050003327803133282100941C33282000941C3E
:1000600033288D31FA2520004A08FF007E10090050
:1000700080313A288E3139268031DF008E313A26A0
:100080008031E0008E313B268031E1002030840059
:10009000003085001D308E31D7268031A03084009D
:1000A000003085001D308E31D7267E102000813132
:1000B000AB2923001908F1007108F5007508031930
:1000C0000800FE285630750603197228413075065F
:1000D0000319722850307506031972284C307506C2
:1000E000031D08007508F10071082000B700B10178
:1000F000B10A08007508F1007108B8000230F1007B
:100100007108B100080037083807F100F201F20D5C
:10011000FF307105F30000307205F40075087306B6
:100120007404031DEE280430F1007108E10056301C
:100130003706031DA0283808F1007108B400F9281B
:1001400041303706031DA9283808F1007108E00086
:10015000F92850303706031DB72850308E31EB2672
:1001600080312B308E31EB2680317B30F7284C30BC
:1001700020003706031DE4280130F1007108B007A4
:10018000D52822000E13C62822000E178E13F92838
:1001900022000E13CD2822000E178E17F9282200F8
:1001A0000E138E132000B001F9283008003A03190D
:1001B000C128013A0319C428033A0319C828013A8F
:1001C0000319CB28CF28F92824308E31EB26803133
:1001D0004D308E31EB2680317130F72824308E314E
:1001E000EB26803143308E31EB26803167308E3103
:1001F000EB262000B1010800B10108002000310801
:10020000003A03196228013A03197A28033A0319BC
:100210008328FC2808002000B309330803193E296D
:100220003208C6000330C636890B13294608323E11
:10023000F000003003180130F10087314927813187
:1002400047302000C6004608C200683084317D2453
:1002500081312000C7004708B5026008C600C70109
:100260004608F0004708F1003508C800C9014808F1
:10027000F2004908F3008F3161270800200032089E
:10028000C6000330C636890B42294608323EF000CC
:10029000003003180130F1008731492781312000F7
:1002A0000C1E9029B6015F08031D652942308E316E
:1002B000EB26813131308E31EB26813173308E3136
:1002C000EB2681312000DF01DF0A610803197C2958
:1002D00065303402031C70296430C6004608B4003F
:1002E0003408C6004608C200C30140308431AF2440
:1002F00001302000E10208000130C6004608B607C0
:1003000065303602031C862922008E1265302000DB
:10031000C6004608C200C30140308431AF24080043
:1003200020005F03031DA22942308E31EB2681316C
:1003300030308E31EB26813172308E31EB268131B7
:100340002000DF016530C6004608C200C30140300E
:100350008431AF24080087315F27813122008E1657
:100360008C1626302100C8004808C4000230C9009D
:100370004908C500683084314A2481312730210082
:10038000C8004808C4001030C9004908C5006830DA
:1003900084314A2481310B302000CB000130CC0065
:1003A0008E31CB268131FF308E31D12681318E3195
:1003B0003626813159302000CB000030CC008E3100
:1003C000C52681310B178B17152A61080319012ADD
:1003D000031022008C1E0314031CF12922008C162A
:1003E000F32922008C1203302100C9008A30C80092
:1003F0005530890BF929C80BF929C90BF9290032A5
:10040000152A031022008C1E0314031C0A2A220042
:100410008C160C2A22008C1282302100C800DD309C
:10042000890B102AC80B102A003220000C1AE5296B
:1004300022008C16152A7E1C1F2A82316B2A8E31CF
:10044000B3268231003A031D2F2A4C2A8E31FB2617
:1004500008008F31032708008F311327080021007F
:100460002F082000D5005508D4000630A03E860095
:100470008701413F8A00403F0A008231013A031957
:100480002C2A033A0319262A013A0319292A073A82
:1004900003192C2A2C2A080021003C101730A03EFA
:1004A00086008701403F84008501810A00088E3163
:1004B000AD26823101302100B8020030B93B380846
:1004C0003904031D652A0630662A0330BD0000305A
:1004D000BE003D0808008E3195268231003A031D8A
:1004E0007B2A972A8E31482608008E314C26080038
:1004F0008E315426080021002F08FA007A08F900EE
:100500000630A03E86008701413F8A00403F0A0036
:100510008231013A0319782A033A0319722A013AFF
:100520000319752A073A0319782A782A0800210046
:100530003C101730A03E86008701403F84008501B3
:10054000810A00088E317C26823101302100B802F8
:100550000030B93B38083904031DB02A0630B12AEF
:100560000330FB000030FC007B0808007E1CBA2A28
:100570008331722B8E312D2682312000D50021004F
:100580003708860087012000550881000130D5001A
:1005900055082100B7070130B8020030B93B3808D0
:1005A00039040319D72A8E31702605300800BC158E
:1005B000DF2A8F312B2708008F31232708002100E5
:1005C0002C082000D5005508D400210021088A00FD
:1005D00020080A008231013A0319DC2A033A031980
:1005E000D92A013A0319D92A073A0319DC2ADC2A45
:1005F00008002000CC00CD01CD0A21003C19342B8D
:1006000020004C08CB004B082100B600BC103C1564
:100610003C100E302000CB004B082100BA00F43013
:10062000B4000130B500BC15A130A0000E30A1000F
:10063000AC01A130A2000E30A300AD01A130A40096
:100640000E30A500AE01A130A6000E30A700AF010C
:10065000A730A8000E30A900B0018E3118268231D3
:100660008F31DA272000CD0120004D08080022003C
:100670008C018D018E01133021008C0070308D00B3
:100680001F308E000E3023008E008D0101308C0053
:1006900024008D018C018E012100951725008C010D
:1006A0008D018E01373026008C00F0308D00FF3038
:1006B0008E003F3027008C00F0308D00FF308E0020
:1006C0000D303C00A4000C30A10010303D009E0015
:1006D00012309F0011309C000E3092000E303C0012
:1006E000A00008008E3112268331FA00210037085D
:1006F000860087017A0881000130FA007A08B7077E
:100700000130B8020030B93B3808390403198C2B8A
:100710008E31442605300800BC15942B8E3160269E
:1007200008008E315C26080021002C08FA007A08A7
:10073000F90021088A0020080A008331013A0319D0
:10074000912B033A03198E2B013A03198E2B073A8A
:100750000319912B912B0800F100F201F20A2100FC
:100760003C19E12B7108F0007008B600BC103C1574
:100770003C100E30F0007008BA00F430B4000130C4
:10078000B500BC15A130A0000E30A100AC01A13015
:10079000A2000E30A300AD01A130A4000E30A500D0
:1007A000AE01A130A6000E30A700AF01A730A8000F
:1007B0000E30A900B0018D31FD2583318F31B62770
:1007C000F2017208080020003C08203E86008701E4
:1007D000810123001D1DF72B20003C08203E8600D0
:1007E000870181145C088A005B080A0083312300BA
:1007F0009D1C052C20003C08203E86008701011529
:100800005A088A0059080A00843120003C08203E1A
:100810008600870101080319142C21004B088A0067
:100820004A080A00843108008631DA2608002100CF
:100830009012E3302000CB000330CC008E31C5266F
:100840008431093023009F0090309D0024309E00A9
:1008500067309B009C01F3302000CB000D30CC00B2
:100860008E31B92684313C302000CB000E30CC00D4
:100870008E31BF268431F7302000CB000D30CC0004
:100880008F314E272000B901BC01BB01BA01210004
:10089000901608002100C700210047088231F92284
:1008A0008431003A03194C2CF1302000D00006307E
:1008B000D100C5302100C60046082000D2008F318B
:1008C000E627843101302000CB000030CC00C4305A
:1008D00087318927843100302000D000D100D20137
:1008E0008F31F32784318E31782684318631352655
:1008F0008431013A031D0800762C2000C400C50194
:10090000200044088331AC238431003A0319802C41
:100910001D30F5000730F60045302000C3004308C5
:10092000F7008F31AA2784310130F0000030F10048
:1009300042308731F22784310030F500F600F701AC
:100940008F31C22784318E31682684318631AA26C0
:100950008431013A0319A62C200045080800200024
:10096000C500200045088331AC238431003A0319C7
:10097000B12CF130F5000630F60043302000C40001
:100980004408F7008F31AA2784310130F00000308D
:10099000F10042308731F22784310030F500F60053
:1009A000F7018F31C22784318E3168268431863138
:1009B000AA268431013A031D0800D72C7E1CE22CA4
:1009C0008531A92D2100BC15EF2C8F310B27080094
:1009D0008E313026033008008F31132708002100A4
:1009E0002C082000D5005508D400210021088A00D9
:1009F00020080A008431013A0319EC2C033A031948
:100A0000E52C013A0319E52C073A0319E82CEC2CE4
:100A100008007E1C0D2D8531F22D21003C10023086
:100A20002000D50055082100BB001C2D8F310B275D
:100A300008008F311327080021002E082000D50060
:100A40005508D4000430A03E86008701413F8A004B
:100A5000403F0A008531023A0319162D013A031965
:100A6000162D192D08008D31FD25853121003C1CE6
:100A7000452D8E3195268531003A0319452D0F30CD
:100A80002000BD003D082100BA0021003A082000E6
:100A9000BD00BE01BD35BE0D15303D07840086305A
:100AA0003E3D8500013F8A00003F0A00853120005D
:100AB000BF003F082100BA0008008E31182685319A
:100AC00021003C1C6E2D8E31B3268531003A03196E
:100AD0006E2D0F302100BF003F08BA0021003A08F8
:100AE000BF00C001BF35C00D15303F078400863000
:100AF000403D8500013F8A00003F0A00853121000A
:100B0000C1004108BA0008002000CF004B084C0487
:100B100003199B2D4F35A03E860087014B08C03F2F
:100B20004C08C13F4D08CE004F08AC3E86008701FF
:100B30004E08810008004F35A03E86008701A13095
:100B4000C03F0E30C13F4F08AC3E86008701810197
:100B500008002100BC15B62D8E31502608008E31BC
:100B60001526033008008E315426080021002C0879
:100B7000FA007A08F90021088A0020080A00853165
:100B8000013A0319B32D033A0319AC2D013A0319A5
:100B9000AC2D073A0319AF2DB32D0800F4007008EF
:100BA00071040319E42D7435A03E86008701700896
:100BB000C03F7108C13F7208F3007408AC3E860064
:100BC00087017308810008007435A03E8600870104
:100BD000A130C03F0E30C13F7408AC3E8600870193
:100BE0008101080021003C100230FA007A08BB00A5
:100BF000FF2D8E31502608008E315426080021002A
:100C00002E08FA007A08F9000430A03E8600870119
:100C1000413F8A00403F0A008631023A0319F92D0C
:100C2000013A0319F92DFC2D08003C340F34CE3461
:100C30000F3494340F341B340234B63402346B3422
:100C40000F34DE340434FB340E3403340F340B34ED
:100C50000F3413340F341B340F3423340F342B343C
:100C60000F3445340F34093405342000CC01CC0A4C
:100C70002100BC18502E3C11FF302000CB004B0847
:100C80002100B6008E31182686318E311E2686311F
:100C90008E311B2621003B082000CB004B08CC00E6
:100CA00020004C0808002000C000C101C10A21003A
:100CB000BC186E2EBC142000C10140080319642E1C
:100CC0002100BA01BA0A692E0230FD007D08210018
:100CD000BA008E31062686318F3157272000410811
:100CE00008007E1C752E8631C32E20005408860015
:100CF0008701403FCB00413FCC005408023E8600B4
:100D00008701010887318927863100302000D00013
:100D1000D100D2018F31E627023008002100C20045
:100D2000C301C30ABC18A72EBC14C301420803198F
:100D30009C2EBA01BA0AA22E02302000D600560814
:100D40002100BA008E31212686318F31752721008E
:100D500043080800F101F10A2100BC18C12E3C1122
:100D6000FF30F0007008B6008D31FD2586318E31E0
:100D7000032686318E31002621003B08F0007008E2
:100D8000F10071080800790886008701403FF000F3
:100D9000413FF1007908023E860087010108873152
:100DA000F22786310030F500F600F7018F31AA27CF
:100DB0000230080023001908F00020003C08283EFB
:100DC00086008701700881000130F0007008BC07C0
:100DD00008303C020318BC010130F0007008BA076B
:100DE00008007E1CF52E8731B22F01302000CB0089
:100DF0000030CC005408873189278631003020002C
:100E0000D000D100D2018F31E627043008007E1CCB
:100E10000B2F8731C22F02302000CB000030CC00D6
:100E2000540887318927873100302000D000D10055
:100E3000D2018F31E627023008007E1C212F873136
:100E4000D22F01302000CB000030CC005408873175
:100E50008927873100302000D000D100D2018F31A6
:100E6000E627023008007E1C372F8731E22F023040
:100E70002000CB000030CC0054088731892787310F
:100E800000302000D000D100D2018F31E62704309D
:100E900008007108F3007008F200F336F20CF33624
:100EA000F20C72082C00980070080339F20005302B
:100EB000F235FF3E031D582F7235970008008F3121
:100EC0007F2787318331372387318E31E42687317D
:100ED0008F319F27873187317427873187319E274C
:100EE000873184311724080020009E019D019F0155
:100EF0009B309B009A01901021009014F430200048
:100F0000CB000D30CC008E31CB26F03020009C0081
:100F100008002000CE002100BC1D080020004E0863
:100F2000CD004D082100B70020004C082100B90079
:100F300020004B082100B800BC11080085302C00AF
:100F400094002B0091010A309000FF309300F6309E
:100F500092009501940120001410941021001414A3
:100F6000941408000130F0000030F1007908873156
:100F7000F22787310030F500F600F7018F31AA27FC
:100F8000043008000230F0000030F10079088731A9
:100F9000F22787310030F500F600F7018F31AA27DC
:100FA000023008000130F0000030F100790887318C
:100FB000F22787310030F500F600F7018F31AA27BC
:100FC000023008000230F0000030F100790887316B
:100FD000F22787310030F500F600F7018F31AA279C
:100FE00004300800F3002100BC1D08007308F20063
:100FF0007208B7007108B9007008B800BC11080089
:101BE60008000800013008008631DA2608002000C7
:101BF6009410080020009011080024009512080097
:101C060021009011080024001614080024009614E0
:101C16000800240016150800240096150800240064
:101C260011080800200090150800200090110800F7
:101C360024009512080021009011080024001614B3
:101C46000800240096140800240016150800240035
:101C560096150800240011080800200090150800B9
:101C660020009C1708008E313326080001342D34DD
:101C7600043423001D121D1608002400961616169D
:101C8600080024009612161608008E310926013027
:101C960008008E310926023008008E3109260130EF
:101CA60008008E310C26003008008E31442605309F
:101CB60008008E3140260A3008008E314026093051
:101CC6000800200090190800642E00308631532643
:101CD60008002400961616160800240096121616FA
:101CE6000800200090190800742E003086318E26D8
:101CF6000800F00070082400910008002100BC10C4
:101D0600BB010E3008002100BC10BB010E300800DC
:101D1600200090108F31892708002000CB004B0847
:101D26009A0008002400160E890C890C0139080057
:101D360021003C108E310F26043008007E1CA52E93
:101D46008D31F52D013008007E1CAB2E8031022826
:101D5600053008002000CB004B0824009100080045
:101D66002400160E890C890C0139080020004C0845
:101D7600DC004B08DB00080020004C08DA004B08AA
:101D8600D900080020004C08DE004B08DD000800E2
:101D960020004C08D8004B08D70008002000CC00D3
:101DA6004C088E3190260800640080010131890BB1
:101DB600D82E003421003C1436358E317C26033073
:101DC60008006A3021009900980122009601080057
:101DD600F0002000101EEC2E700823009A00080068
:101DE60021003C140314360D8E317C260530080084
:101DF6007E1CFF2E8E31482E8E312426013008009F
:101E06007E1C072F8E314C2E8E3124260230080080
:101E16007E1C0F2F8E31502E8E3124260130080065
:101E26007E1C172F8E31542E8E3127260030080047
:101E36007E1C1F2F8E31582E8E31702605300800DD
:101E46007E1C272F8E315C2E8E316C260A300800C0
:101E56007E1C2F2F8E31602E8E316C2609300800A5
:101E6600200014102B001808F00070082000B200A3
:101E760008007E1C402F8E31812E2100BC10BB0134
:101E86000E3008007E1C492F8E31862E2100BC1094
:101E9600BB010E30080020004C082100CB002000BA
:101EA6004B082100CA0008002100BC1C08008E3126
:101EB60064268F31853133258F31572F71082B00DA
:101EC6008D0070088C0073088F0072088E00080061
:101ED6007E1C6F2F8E319B2E21003C108E312A26C0
:101EE600043008002100BC1C08008E3174268F3196
:101EF60085315D258F31752F8030240094000830A0
:101F060095009601093092009512080020005708A6
:101F160058040319080058088A0057080A008F3128
:101F260008007E1C982F8E31DD2E21003C1436359C
:101F36008E31AD260330080080302C0099000F301A
:101F4600980040309700CF3025009E05080076089F
:101F5600F1007508F0007708F8007808F200003004
:101F66008531CE2508002400951A0800803094009B
:101F760008309500960109309200951608007608FB
:101F8600F1007508F0007708F8007808F2000230D2
:101F96008531CE2508007E1CD22F8E31F32E2100EE
:101FA6003C140314360D8E31AD260530080024008E
:101FB600951A080080309400083095009601093083
:101FC60092009516080020005108CC005008CB005E
:101FD6005208D3005308CD0000308531842508000F
:101FE60020005108CC005008CB005208D3005308FB
:0A1FF600CD0002308531842508007B
:020000040001F9
:06000E00FC3FFF3F9F3F95
:00000001FF
