:0400000080312428FF
:100008007E14803120007F08E2000B1F1F2821008A
:10001800901E17282000901E172868088A00670875
:100028000A0080311F282100901C1F282000901CE6
:100038001F2885318E2520006208FF007E100900E8
:10004800803126288531D2258031E9008531D325B4
:100058008031EA008531D4258031EB0020308400DE
:10006800003085003830853164257E1020008131CC
:100078005C2923001908F1007108F50075080319B7
:100088000800E228563075060319562841307506CF
:100098000319562850307506031956284C30750632
:1000A800031D08007508F10071082000D200CE0178
:1000B800CE0A08007508F1007108D3000230F1007B
:1000C8007108CE00080052085307F100F201F20D42
:1000D800FF307105F30000307205F40075087306EF
:1000E8007404031DD2280430F1007108EB00563067
:1000F8005206031D84285308F1007108CF00DD283B
:1001080041305206031D8D285308F1007108EA009A
:10011800DD2850305206031D9B28503085314E256E
:1001280080312B3085314E2580317B30DB284C30B7
:1001380020005206031DC8280130F1007108CD07C0
:10014800B92822000E13AA2822000E178E13DD28C4
:1001580022000E13B12822000E178E17DD28220068
:100168000E138E132000CD01DD284D08003A031927
:10017800A528013A0319A828033A0319AC28013A1B
:100188000319AF28B328DD28243085314E25803166
:100198004D3085314E2580317130DB282430853152
:1001A8004E258031433085314E2580316730853189
:1001B8004E252000CE010800CE01080020004E0880
:1001C800003A03194628013A03195E28033A03192D
:1001D8006728E028080020006A08E1000330E136BB
:1001E800890BF3286108323EF00000300318013013
:1001F800F10084315324803120000C1E4129D101A3
:100208006908031D1629423085314E258031313069
:1002180085314E258031733085314E25803120005F
:10022800E901E90A6B0803192D2965304F02031CFF
:1002380021296430E1006108CF004F08E10061081E
:10024800DD00DE0140308331102301302000EB0255
:1002580008000130E1006108D10765305102031C34
:10026800372922008E1265302000E1006108DD0088
:10027800DE01403083311023080020006903031D8C
:100288005329423085314E258031303085314E2515
:100298008031723085314E2580312000E90165308A
:1002A800E1006108DD00DE014030833110230800E1
:1002B80084317D24813122008E168C16EF30210086
:1002C800A4000030A50085312B258131FF30853110
:1002D8006A2581318531D52581313D302100A40041
:1002E8000030A5008531342581310B178B17AC29D7
:1002F8006B0803199829031022008C1E0314031C91
:10030800882922008C168A2922008C1203302100A9
:10031800A7008A30A6005530890B9029A60B902992
:10032800A70B90290032AC29031022008C1E03145D
:10033800031CA12922008C16A32922008C128230CA
:100348002100A600DD30890BA729A60BA7290032BA
:1003580020000C1A7C2922008C16AC2985318825AE
:100368008131003A031DC229DE298531C2250800E2
:100378008531BE2508008531B625080020002F08E4
:10038800FA007A08F9000630203E86008701413FCE
:100398008A00403F0A008131013A0319BF29033A14
:1003A8000319B929013A0319BC29073A0319BF29C6
:1003B800BF29080020003C101730203E8600870126
:1003C800403F84008501810A000885319D258131DF
:1003D80001302000B8020030B93B38083904031D49
:1003E800F7290630F8290330FB000030FC007B08B1
:1003F800080022008C018D018E01133021008C0031
:1004080070308D001F308E000E3023008E008D015D
:1004180001308C0024008D018C018E01210095177C
:1004280025008C018D018E01373026008C00F030BC
:100438008D00FF308E003F3027008C00F0308D009B
:10044800FF308E000D303C00A4000C30A1001030AD
:100458003D009E0012309F0011309C000E3092002B
:100468000E303C00A00008008531DE258231FA00FC
:1004780020003708860087017A0881000130FA00D9
:100488007A08B7070130B8020030B93B3808390498
:100498000319522A8531C62505300800BC155A2A89
:1004A8008531AA2508008531AE25080020002C08D2
:1004B800FA007A08F90021088A0020080A00823127
:1004C800013A0319572A033A0319542A013A03191E
:1004D800542A073A0319572A572A0800F100F2014B
:1004E800F20A20003C19A72A7108F0007008B6002B
:1004F800BC103C153C100E30F0007008BA00F43007
:10050800B4000130B500BC15FB30A0000530A100D7
:10051800AC01FB30A2000530A300AD01FB30A40004
:100528000530A500AE01FB30A6000530A700AF01DD
:10053800F930A8000530A900B0018531F3258231D2
:100548008431E924F20172080800200057083D3E72
:1005580086008701810123001D1DBD2A2000570840
:100568003D3E86008701811466088A0065080A00F6
:10057800823123009D1CCC2A200057083D3E86006E
:1005880087010115210023088A0022080A00823108
:10059800200057083D3E8600870101080319DB2A21
:1005A800210021088A0020080A00823108008431CD
:1005B8003C24080021009012A930A4000230A500B4
:1005C800853134258231093023009F0090309D0009
:1005D80024309E0067309B009C01FE302100A4005F
:1005E8000530A50085313D258231CE302100A4009B
:1005F8000530A500853176258231F6302100A4002A
:100608000530A50085317C252000D401D701D6010D
:10061800D5012100901608002000E00020006008A5
:10062800823172228331003A0319122B8F30F50080
:100638000430F6005E302000DF005F08F7008431E8
:10064800F52483310130F0000030F1005D30843151
:10065800CF2483310030F500F600F7018431DD2422
:1006680083318531A225833184310C248331013AC9
:10067800031D0800382B8531F325833120003C1CED
:10068800502B853188258331003A0319502B0F30C0
:100698002000D8005808BA0020003A08D800D9012C
:1006A800D835D90DD230580784008330593D85009C
:1006B800013F8A00003F0A0083312000DA005A080F
:1006C800BA0008002000BC15732B8531BA25080034
:1006D8008531DB25033008008531B6250800200068
:1006E8002C08FA007A08F90021088A0020080A0074
:1006F8008331013A0319702B033A0319692B013A24
:100708000319692B073A03196C2B702B0800F400A6
:10071800700871040319A12B7435203E86008701E7
:100728007008C03F7108C13F7208F30074082C3E7E
:10073800860087017308810008007435203E860012
:100748008701FB30C03F0530C13F74082C3E86004E
:1007580087018101080020003C100230FA007A0865
:10076800BB00BC2B8531BA2508008531B6250800A9
:1007780020002E08FA007A08F9000430203E86008E
:100788008701413F8A00403F0A008331023A03193A
:10079800B62B013A0319B62BB92B08009834053447
:1007A800463405345D340534B23401343834023407
:1007B8008234053466340334C2340534BE34053417
:1007C800BA340534B6340534B2340534AE3405349D
:1007D800AA34053493340534AF3403342000DB00E5
:1007E800DC01DC0ABC18092CBC14DC015B08031909
:1007F800002CBA01BA0A042C0230FD007D08BA00A8
:100808008531EA2583318531212520005C080800DF
:10081800F101F10A2000BC18232C3C11FF30F00034
:100828007008B6008531F32584318531ED25843192
:100838008531F02520003B08F0007008F1007108B0
:100848000800790886008701403FF000413FF10029
:100858007908023E8600870101088431CF2484315B
:100868000030F500F600F7018431F5240230080065
:1008780023001908F00020005708453E860087012C
:10088800700881000130F0007008D707083057025F
:100898000318D7010130F0007008D5070800710867
:1008A800F3007008F200F336F20CF336F20C72081B
:1008B8002C00980070080339F2000530F235FF3E2D
:1008C800031D622C72359700080020009E019D01CF
:1008D8009F019B309B009A01901021009014FD30DD
:1008E800A4000530A50085312B25F03020009C00A0
:1008F80008008531172584318131FD218431853106
:100908005625843185310125843184316924843127
:100918008231DE2208000130F0000030F100790851
:100928008431CF2484310030F500F600F70184319A
:10093800F524043008000230F0000030F100790896
:100948008431CF2484310030F500F600F70184317A
:10095800F524023008000130F0000030F100790879
:100968008431CF2484310030F500F600F70184315A
:10097800F524023008000230F0000030F100790858
:100988008431CF2484310030F500F600F70184313A
:10099800F52404300800F3002000BC1D080073088B
:1009A800F2007208B7007108B9007008B800BC11ED
:1009B80008007608F1007508F0007708F800780854
:1009C800F200023083318B2308002400951A0800B6
:1009D80080309400083095009601093092009516F1
:1009E80008007608F1007508F0007708F800780824
:1009F800F200003083318B23080080302C009900EE
:100A08000F30980040309700CF3025009E05080031
:100A18002000630864040319080064088A00630856
:100A28000A008531080080302400940008309500C1
:100A3800960109309200951208002000BC1C08009D
:100A48008531A625853183313F238531212D21002C
:100A580025082000E400210024082000E300080005
:100A6800210025082000E800210024082000E700D4
:100A78000800210025082000E600210024082000A5
:100A8800E500080020003C140314360D85319D252F
:100A980005300800F0002000101E4F2D70082300BC
:100AA8009A0008006A3021009900980122009601F6
:100AB800080020003C14363585319D250330080098
:100AC800640080010131890B652D00342100A500E7
:100AD80025088531702508002100A400240820007D
:100AE8009A00080021002508A3002408A200080095
:100AF80021002508A1002408A000080020003C10BF
:100B08008531E125043008002400160E890C890C73
:100B1800013908002000901085310C2508002000BC
:100B2800BC10BB010E3008002000BC10BB010E3009
:100B38000800F0007008240091000800003083319C
:100B4800F2230800200090190800A62D8531CA2537
:100B5800093008008531CA250A3008008531C625C4
:100B6800053008008531E425003008008531E72587
:100B7800013008008531E725023008008531E72576
:100B88000130080024009612161608002400961654
:100B98001616080023001D121D16080001342D34F6
:100BA80004348531D825080020009C17080020004F
:100BB8009015080024001108080024009615080064
:100BC80024001615080024009614080024001614A2
:100BD8000800210090110800240095120800200048
:100BE8009011080084313C240800053008000130C9
:060BF800080008000800DF
:020000040001F9
:06000E00FC3FFF3F9F3F95
:00000001FF
