:0400000080312428FF
:100008007E14803120007F08F6000B1F1F28210076
:10001800901E17282000901E17285A088A00590891
:100028000A0080311F282100901C1F282000901CE6
:100038001F288231642276082000FF007E10090004
:10004800803126288231D2228031FC008231D022B0
:100058008031DF008231D1228031E000F701F801E0
:10006800F901FA01FB0120308400003085003130AD
:10007800823194227E1020008031C828230019087C
:10008800F1007108F500750803190800BC285630FE
:10009800750603195728413075060319572850303B
:1000A8007506031D08007508F1007108F800F701CE
:1000B800F70A08007508F1007108F9000230F1002C
:1000C8007108F700080078087907F100F201F20DCD
:1000D800FF307105F30000307205F40075087306EF
:1000E8007404031DAD280430F1007108FC0056307B
:1000F8007806031D88287908F100F20171082000AC
:10010800CD007208CE00B82841307806031D952826
:100118007908F100F20171082000DF007208E000A0
:10012800B82850307806031DA32850308231852224
:1001380080312B308231852280317B30B6282430C3
:100148008231852280314D30823185228031713073
:10015800B62824308231852280314330823185228D
:100168008031673082318522F7010800F7010800E5
:100178007708003A03194B28013A03195E28033A15
:1001880003196728BA2808008231522280312200D8
:100198008C16BE302000DB000130DC008231A0224A
:1001A8008031FF3082319A2280318231C7228031FA
:1001B80042302000DB000030DC008231A622803192
:1001C8000B178B17FF28031022008C1E0314031C27
:1001D800F02822008C16F22822008C12033020000E
:1001E800DE008A30DD005530890BF828DD0BF82851
:1001F800DE0BF82800327C08031DE72820000C1EBF
:10020800082922008C16FF28031022008C1E0314D4
:10021800031C112922008C16132922008C1282300B
:100228002000DD00DD30890B1729DD0B172900328E
:10023800FF2822008C018D018E01133021008C00D3
:1002480070308D00FF308E008E3023008E008D01BF
:1002580001308C0024008D018C018E01210095173E
:1002680025008C018D018E01373026008C00F0307E
:100278008D00FF308E003F3027008C00F0308D005D
:10028800FF308E000D303C00A4000C30A10010306F
:100298003D009E0012309F0011309C000E309200ED
:1002A8000E303C00A0000800210090128B30200086
:1002B800DB000130DC008231A622813109302300C5
:1002C8009F0090309D0024309E0067309B009C0169
:1002D800D4302000DB000230DC008231B2228131D0
:1002E800C3302000DB000230DC008231AC228131D7
:1002F800CD302000DB000230DC008231B822200043
:10030800CF01D001FB01FA0121009016080020005E
:1003180050083D3E86008701810123001D1D9F294D
:10032800200050083D3E86008701811458088A0045
:1003380057080A00813123009D1CAD292000500870
:100348003D3E86008701011556088A0055080A00B7
:100358008131200050083D3E8600870101080319BD
:10036800BB2954088A0053080A00813108008231E9
:100378001022080020006008F5005F08F400F53638
:10038800F40C7408143EF000003003180130F1003A
:1003980082312722813120000C1EE429423082312B
:1003A8008522813131308231852281317330823129
:1003B800852281317C08031908000130FC020800FD
:1003C800423082318522813130308231852281313B
:1003D8007230823185220800003400340034003441
:1003E8000034003400340034003400340034003465
:1003F8000034003400340034003400340034003455
:100408000034003400340034003400340034003444
:10041800003400340034003423001908F0002000B0
:100428005008453E86008701700881000130F000C1
:100438007008D007083050020318D0010130F000CE
:100448007008FA0708007108F3007008F200F33624
:10045800F20CF336F20C72082C009800700803397D
:10046800F2000530F235FF3E031D362A723597003B
:10047800080020009E019D019F019B309B009A016E
:10048800901021009014D3302000DB000230DC00F3
:100498008231A022F03020009C00080082317B22AB
:1004A800823181311D21823182318D228231823126
:1004B8007022823182313D228231813158210800F7
:1004C80020009010510852040319080052088A00AD
:1004D80051080A008231080080302C0099000F3042
:1004E800980040309700CF3025009E0508008030E6
:1004F8002400940008309500960109309200951266
:100508000800F0002000101E862A700823009A00B8
:1005180008006A302100990098012200960108001D
:10052800640080010131890B952A00342000DC0029
:100538005C088231BE22080020005C08D2005B08FB
:10054800D100080020005C08DA005B08D900080028
:1005580020005C08D6005B08D500080020005C0875
:10056800D8005B08D700080020005C08D4005B08AE
:10057800D30008002000DB005B089A000800230075
:100588001D121D1608008231CA22080020009C177F
:1005980008008231102208000A34003404340800AC
:0205A800080049
:020000040001F9
:06000E00FC3FFF3F9F3F95
:00000001FF
