:020000040000fa
:080000000001040000000000f3
:020000040000fa
:04000800ec02000006
:020000040000fa
:04000c00ec02000002
:020000040000fa
:04001000ec020000fe
:020000040000fa
:04001400ec020000fa
:020000040000fa
:04001800ec020000f6
:020000040000fa
:04001c00ec020000f2
:020000040000fa
:04002000ec020000ee
:020000040000fa
:04002400ec020000ea
:020000040000fa
:04002800ec020000e6
:020000040000fa
:04002c00ec020000e2
:020000040000fa
:04003000ec020000de
:020000040000fa
:04003400ec020000da
:020000040000fa
:04003800ec020000d6
:020000040000fa
:04003c00ec020000d2
:020000040000fa
:04004000ec020000ce
:020000040000fa
:040044001a0200009c
:020000040000fa
:04004800ec020000c6
:020000040000fa
:04004c00ec020000c2
:020000040000fa
:04005000ec020000be
:020000040000fa
:0400540002020000a4
:020000040000fa
:04005800ec020000b6
:020000040000fa
:04005c00ae020000f0
:020000040000fa
:04006000ec020000ae
:020000040000fa
:04006400c8010000cf
:020000040000fa
:04006800ec020000a6
:020000040000fa
:04006c00ec020000a2
:020000040000fa
:04007000ec0200009e
:020000040000fa
:04007400ec0200009a
:020000040000fa
:04007800ec02000096
:020000040000fa
:04007c00ec02000092
:020000040000fa
:04008000ec0200008e
:020000040000fa
:04008400ec0200008a
:020000040000fa
:04008800ec02000086
:020000040000fa
:04008c00ec02000082
:020000040000fa
:04009000ec0200007e
:020000040000fa
:04009400ec0200007a
:020000040000fa
:04009800ec02000076
:020000040000fa
:04009c00ec02000072
:020000040000fa
:0400a000ec0200006e
:020000040000fa
:0400a400ec0200006a
:020000040000fa
:0400a800ec02000066
:020000040000fa
:0400ac00ec02000062
:020000040000fa
:0400b000ec0200005e
:020000040000fa
:0400b400ec0200005a
:020000040000fa
:0400b800ec02000056
:020000040000fa
:0400bc00ec02000052
:020000040000fa
:0400c000ec0200004e
:020000040000fa
:0400c400ec0200004a
:020000040000fa
:0400c800ec02000046
:020000040000fa
:0400cc00ec02000042
:020000040000fa
:0400d000ec0200003e
:020000040000fa
:0400d400ec0200003a
:020000040000fa
:0400d800ec02000036
:020000040000fa
:04010800ec02000005
:020000040000fa
:04010c00ec02000001
:020000040000fa
:04011000ec020000fd
:020000040000fa
:04011400ec020000f9
:020000040000fa
:04011800ec020000f5
:020000040000fa
:04011c00ec020000f1
:020000040000fa
:04012000ec020000ed
:020000040000fa
:04012400ec020000e9
:020000040000fa
:04012800ec020000e5
:020000040000fa
:04012c00ec020000e1
:020000040000fa
:04013000ec020000dd
:020000040000fa
:04013400ec020000d9
:020000040000fa
:04013800ec020000d5
:020000040000fa
:04013c00ec020000d1
:020000040000fa
:04014000ec020000cd
:020000040000fa
:04014400ec020000c9
:020000040000fa
:04014800ec020000c5
:020000040000fa
:04014c00ec020000c1
:020000040000fa
:04015000ec020000bd
:020000040000fa
:04015400ec020000b9
:020000040000fa
:04015800ec020000b5
:020000040000fa
:04015c00ec020000b1
:020000040000fa
:04016000ec020000ad
:020000040000fa
:04016400ec020000a9
:020000040000fa
:04016800ec020000a5
:020000040000fa
:04016c00ec020000a1
:020000040000fa
:04017000ec0200009d
:020000040000fa
:04017400ec02000099
:020000040000fa
:04017800ec02000095
:020000040000fa
:04017c00ec02000091
:020000040000fa
:04018000ec0200008d
:020000040000fa
:04018400ec02000089
:020000040000fa
:04018800ec02000085
:020000040000fa
:04018c00ec02000081
:020000040000fa
:04019000ec0200007d
:020000040000fa
:04019400ec02000079
:020000040000fa
:04019800ec02000075
:020000040000fa
:04019c00ec02000071
:020000040000fa
:0401a000ec0200006d
:020000040000fa
:0401a400ec02000069
:020000040000fa
:0401a800ec02000065
:020000040000fa
:0401ac00ec02000061
:020000040000fa
:0401b000ec0200005d
:020000040000fa
:0401b400ec02000059
:020000040000fa
:0401b800ec02000055
:020000040000fa
:0401bc00ec02000051
:020000040000fa
:0401c000ec0200004d
:020000040000fa
:0401c400ec02000049
:020000040000fa
:0401c800ec02000045
:020000040000fa
:0401cc00ec02000041
:020000040000fa
:0401d000ec0200003d
:020000040000fa
:0401d400ec02000039
:020000040000fa
:0401d800ec02000035
:020000040000fa
:100200000f8120000e9f20000e01880000000000da
:10021000000020000000e000020032000001200089
:100220002002880014000700ed0007000000e00035
:1002300003003a00c0412000010020000200370006
:100240000000200001002000810f7000010032003a
:1002500014000700000020000000e000020032004f
:100260000000020000000000b003020000000000d7
:100270000040da000000fe004440a9000001200018
:100280000000e0000300320000002000a001880010
:100290004440a800000006008a1f78008b1f7800e9
:1002a0000000060091018800800478000000eb0047
:1002b0001a003700e284440032a0b4009905ba0065
:1002c000e284440032a0b4009906ba00e2844400fb
:1002d00032a0b4000006eb00476fde00fd07b2005d
:1002e000636ce10003003a00ebff07000000eb0045
:1002f0000a003700606ce10004003a00005deb008a
:100300008b05e900fdff3e00040037006168e10055
:10031000010032000086eb000b00070019c7ba008d
:100320001905ba000e04e00003003a000a00e000dc
:10033000e0ff3a0000000600fe07b2009e018800c0
:100340008a047800f5ff3700395dba008b05e900b3
:100350000c003200295dba008b05e900080032006c
:100360000c00e00003003a00e284440032a0b40034
:10037000f5ff370019ddba008b05e900faff3a00f6
:100380008904e800e184440032a0b40000000600c3
:10039000809fbe003400f80000002000a00188000b
:1003a0000000fa0085e0a900604080000000e00045
:1003b0000d003200411680008003200000806000a4
:1003c00000408800004080004300de0000408800bc
:1003d0000040800080004000202f28000080400066
:1003e00010007800a00e8800204080000000e80087
:1003f000204088000080fa003400f9004f00be0061
:1004000000400600801f78003400f8000000200043
:10041000a00188000000fa008560a9000014800097
:10042000104088000080fa003400f9004f00780086
:1004300000400600809fbe003400f800000020004d
:10044000a00188000200fa0084e0a90011408000a9
:10045000803e2000808f500006003600d621ef003d
:10046000da21ef00da21ef00200020005040880060
:100470003500370007c8bf000004e0002d0032003f
:1004800006c8bf00f44f50001d0036002140800018
:10049000004b2000808f5000060036006180200055
:1004a00091407800014f78001000200060408800e3
:1004b000150037000c28ef00b00e800000407800d7
:1004c000694f400008c8bf000080fb00800040006a
:1004d000202f28000080400010007800a00e880027
:1004e00008c8bf000040e80008e8b70008c8bf001f
:1004f000e94f5000040036000868ef0002003700a2
:100500000040eb00004f780007c8bf000040e90042
:1005100007e8b7000a28ef001e80fb00b00e880035
:100520001e80fb00d00e88001e80fb00d00e8800cd
:1005300005003700d621ef00da21ef00da21ef00c5
:1005400010002000504088000428ef000080fa00ce
:100550003400f9004f00be0000400600809fbe003e
:100560003400f80000002000a00188000200fa001a
:1005700085a0a90000108000004f780050c6b3008d
:100580009e40780080cf50000f003e001e40780053
:100590000004e0000c00320050c6b3009e4078001a
:1005a00080cf500002003a000668ef0004003700d8
:1005b00040c6b3001e4050000040400006e8b700af
:1005c00040c0b30007e8b7000080fa003400f9002b
:1005d0004f00be00004006000040da000000fe00b0
:0405e0000000050012
:020000040000fa
:1005e40000000000100200000420000004020000cb
:1005f40001080000100800000120000000000000b5
:020000040000fa
:100604000000fa00d022ef00dc22ef00f0ff2d0002
:100614006016880040012000301688003000200059
:100624009016880000fc2f00c0168800c00020002f
:10063400f01688000080fa00000006000000fa00ae
:10064400b0ff2f00401588004006200000158800e8
:1006540000202000101588000008200020158800c4
:1006640020002000301588008560a9008d60a80056
:10067400a1e2a8000080fa00000006000000fa00d1
:10068400f0042000200e880000702000400e880036
:10069400d421ef00d621ef00da21ef00da21ef00b8
:1006a400200e8000300e880000f02000500e8800dc
:1006b40000002800000e88000080fa0000000600f8
:1006c4000000fa0000032000900888000a21ef00cf
:1006d400000920007008880084e0a8008ce0a800cd
:1006e40013e1a8000080fa00000006000000fa00f0
:1006f400000e20000006880085e0a9008de0a80017
:100704000080fa00000006000000fa000004200047
:10071400501088000022ef000011200020108800f3
:10072400002029003010880085a0a9008da0a80011
:100734000080fa00000006000000fa00b0ff070085
:10074400beff0700cdff0700ddff0700e7ff07003e
:10075400edff07000080fa00000006000400fa0024
:10076400000f780011079800f3ff0700707720004e
:10077400400e8800d022ef0050408000e20f50006d
:100784000c003a0000702000400e880000c02500d4
:100794004104200019000700000022008016880090
:1007a40000c025004104200014000700d022ef00ff
:1007b400f1ff370050408000e10f500003003a0081
:1007c4000000220080168800ebff370070772000bd
:1007d400400e880000c02a00d10020000700070056
:1007e400000022008016880000c02a00d1002000ea
:0c07f40002000700d022ef00dfff3700fa
:020000040000fa
:10080000f03fb1000180b10006003500ee030900a1
:1008100000000000403fb1000180b100fbff3d003f
:100820001000b000203fb000020035000080090039
:080830000000000000000600ba
:020000040000fa
:100838000008000010000000000000000000000098
:020000040000fa
:0200000401f009
:04000000f7bd000048
:020000040000fa
:0200000401f009
:04000400ff7f00007a
:020000040000fa
:0200000401f009
:040008007cff000079
:020000040000fa
:0200000401f009
:04001400ffff0000ea
:020000040000fa
:0200000401f009
:04001800ffff0000e6
:00000001FF
